S01200006C6D616F50726F6A6563742E73333762
S113000000100020750C0000174C0000174C000075
S1130010174C0000174C0000174C0000174C000050
S1130020174C0000174C0000174C0000174C000040
S1130030174C0000174C0000174C0000174C000030
S1130040174C0000174C0000174C0000174C000020
S1130050174C0000174C0000174C0000174C000010
S1130060174C0000174C0000174C0000174C000000
S1130070174C0000174C0000174C0000174C0000F0
S1130080174C0000174C0000174C0000174C0000E0
S1130090174C000035130000174C0000174C0000EB
S11300A0174C00005914000035140000174C0000D0
S11300B0174C0000174C0000174C0000174C0000B0
S11300C0174C0000174C0000174C0000174C0000A0
S11300D0174C0000174C0000174C0000174C000090
S11300E0174C0000174C0000174C0000174C000080
S11300F0174C0000174C0000174C0000174C000070
S1130100174C0000174C0000174C0000174C00005F
S1130110174C0000174C0000174C0000174C00004F
S1130120174C0000174C0000174C0000174C00003F
S1130130174C0000174C0000150C0000494B000040
S11301402DE9F04F93B0CDE90A32DDE91C530E934B
S113015053EC102BCDE90801104619468DED060B22
S11301601E9E03F0C3FF80B1DDE906014FF0FF32AC
S1130170C54B03F0E3FF40B9DDE906014FF0FF3260
S11301806FF4801303F0BCFF70B1DDE908019DED4D
S1130190060B0E9B1E96CDE91C53DDE90A3213B003
S11301A0BDE8F04F00F088B90022DDE90601002324
S11301B003F0A6FF002800F03381DDE906A303F174
S11301C0004BCBF30A5016F48063A0F2FF3008BF53
S11301D006250F9303F0B8FC9BA3D3E9002303F097
S11301E01DFD9BA3D3E9002303F062FBCBF31304AF
S11301F0894644F07F5180460022A44B504641F486
S1130200401103F053FB94A3D3E9002303F006FD4C
S113021002460B464046494603F04AFB03F098FF6A
S1130220044603F091FC8EA3D3E90023804689465B
S113023003F0F4FC0022964B03F03AFB03F088FF32
S113024089A3D3E9002307464946404603F0E6FC68
S113025080463846894603F077FC85A3D3E900231A
S113026003F0DCFC02460B464046494603F01EFB05
S113027002460B46CDE90C2303F0D0FCDDE90C2348
S1130280804689461046194603F012FB0022CDE948
S11302901001804B4046494603F0EAFD00227E4BA4
S11302A003F006FB02460B464046494603F0E0FDD8
S11302B000227A4B03F0FCFA02460B4640464946BC
S11302C003F0D6FDDDE90C238046894600204FF07B
S11302D0804103F0EBFA02460B464046494603F0E0
S11302E0E7FA02460B46DDE9100103F0C1FD07F20F
S11302F0FF3700226A4B03F0DBFA00223B0503F0D0
S11303008DFC52465B468046894603F017FF002861
S113031040F08980CDE90C8904F16303C72B34BF15
S11303200427052731051BD553A3D3E900235046E1
S1130330594603F0F9FE00287FD051A3D3E90023E6
S11303405046594603F0DCFE002876D00027A5422B
S1130350C6BF2C1B04F1FF3500253C4646F48066DD
S11303600E9B9F422CBF4FF00008A3EB070816F02A
S1130370020903D0002F18BF4FF000083CB1DDE99B
S11303800C235046594603F073FD82468B46DDE943
S113039006010022002303F0B3FE10B10BF1004369
S11303A09B46DDE9080126F40063CDE90183DDE91C
S11303B00A324BEC10AB009500F07EF802465FB3B6
S11303C0DDE9091316F0200F00F10105089E0CBFAA
S11303D065204520B047DDE9080105230022059387
S11303E00A23002CCDE9023207F1FF374FEAD47318
S11303F0B8BF64422A46019304970A9B009404F010
S1130400ACFE0246B9F1000F06D00B9BC41A0B9B3D
S11304101A190E9BA34245D8104613B0BDE8F08FBD
S1130420DDE906ABCDE60022404649461A4B03F00F
S11304301FFD013CCDE90C016EE7002D90D00F9B10
S1130440002B8DD0013D8BE7FB799F501344D33FA4
S1130450B3C8608B288AC63F61436F63A787D23FC6
S113046071A379094F930A401655B5BBB16B02408D
S1130470EF39FAFE422EE63F2D431CEBE2361A3FDB
S11304800000000080842E41FFFFEF7F0000F83F52
S11304900000E03F00002C40000024400000184011
S11304A00000F03F2020DDE90913089DA84701342E
S11304B0ADE700BF000000002DE9F04F97B05BEC02
S11304C010ABDDE92057CDE90501CDE907235046FE
S11304D052465B465946229E03F008FE70B9032338
S11304E0CDE902760193B04B0093DDE90501DDE926
S11304F0072304F052FD17B0BDE8F08F4FF0FF3230
S11305006FF480135046594603F0FAFD28B10423D2
S1130510CDE902760193A54BE6E74FF0FF32504652
S11305205946A34B03F00AFE68B1A24A06F004033D
S1130530002B08BF0322A04B1CBF13460422CDE9A5
S113054002760192D0E7504693A3D3E9002359469B
S113055003F0F4FD38B992A3D3E900235046594679
S113056003F0CEFD68B1DDE90723DDE905014BECBD
S113057010ABCDE92176209517B0BDE8F04FFFF719
S1130580DFBD002200235046594603F0B9FD002880
S113059000F09A805B4652460020002103F086F961
S11305A0012382468B46099316F4806400F08E8002
S11305B0092D40F28E80002430210EABA5F10902F2
S11305C00134202C03F8011BA5EB040901D094424B
S11305D0F6D15946504603F0BBFD784B054603EB74
S11305E0C90393ED007B8DED0A7B03F0ADFA02465F
S11305F00B465046594603F059F9DDE90A2303F046
S11306000DFB02460B46CDE90C2303F0C9FD8046E1
S113061003F08AFA02460B46DDE90C0103F046F9C1
S113062002460B46CDE90C230022654B03F086FD00
S1130630002851D008F10108404603F075FA02463B
S11306400B46DDE90A0103F065FD10B14FF0000827
S11306500135B9F1000F50D1284603F075FA02466E
S11306600B465046594603F021F90022544B80466C
S1130670894603F045FD30B1002240464946504BBF
S113068003F05CFD10B1E80700D501350A210EAB7B
S11306901A19202C0AD095FBF1F001FB10553035C6
S11306A002F8015B013405460028F2D106F003028A
S11306B0012A57D1002F55D0099A12B916F00C0F00
S11306C000D0013F302245E009906DE74FF0060964
S11306D07FE7A94600247CE70022DDE90C01384BC2
S11306E003F00EFD0028B4D1B8F1000F02D018F0C9
S11306F0010FAED008F10108ABE70A210EAB234489
S1130700202C0ED0B8FBF1F001FB1082B8F1090FD8
S113071002F1300209F1FF3904F1010403F8012B5D
S113072011D83021A1440EAA202CAFD0A14504F148
S113073001030AD11C4609F158030DEB03092E23CA
S113074009F8203CA2E78046DAE7A1541C46EBE70F
S11307501A550134A74205D9202CF9D1CDE90276E6
S11307600194C1E6202CF9D0099A3AB12D2104F163
S113077058026A4402F8201C0134EFE7710704D5DB
S113078004F158022B216A44F4E73207E6D504F158
S1130790580220216A44EDE70000000065CDCD41F8
S11307A00000000065CDCDC1CD580000D158000037
S11307B0FFFFEF7FC4580000C9580000D85800005C
S11307C00000E03F0348044B834202D0034B03B1D3
S11307D0184770478C1000208C1000200000000087
S11307E0064B0749C91A891048BF0131491003D083
S11307F0044B0BB101481847704700BF8C10002010
S11308008C1000200000000010B5064C237843B97A
S1130810FFF7D8FF044B13B10448AFF30080012362
S1130820237010BDF41500200000000028590000BA
S113083008B5054B1BB105490548AFF30080BDE879
S11308400840FFF7CDBF00BF000000008C1000205F
S113085028590000A3F5803A704700BF174B002BBE
S113086008BF134B9D46FFF7F5FF00218B460F464B
S11308701348144A121A04F068FD0E4B002B00D0E2
S113088098470D4B002B00D098470020002104000E
S11308900D000D48002802D00C48AFF3008003F08F
S11308A0DFFF2000290004F029F903F029FE00BF2E
S11308B000000800000000000000000000100020FC
S11308C08C10002020160020000000000000000012
S11308D038B5032804460D4605D80B4B33F81030C1
S11308E0CB40DB0704D44FF48961084804F0A7F92E
S11308F030220123544343F2100204F1A044AB40DC
S113090004F57034A35038BDAE55000060550000A6
S113091010B50A4C237843B1022200231146104635
S113092001F044FF0023237010BD0222012311466D
S1130930104601F03BFF0123F5E700BFF615002048
S1130940F8B5144C0728237883F00103237004D1ED
S1130950114D124E124F237803B9F8BDFFF7D8FF9B
S113096029683078FFF7B4FF642004F0B7F80D4B22
S113097039681878FFF7ACFF642004F0AFF80A4B2D
S113098019680A4B1878FFF7A3FF642004F0A6F84F
S1130990E1E700BFF5150020A41000207E10002020
S11309A0041000207D100020001000207C10002086
S11309B007B5022200231146104601F0F7FE17493D
S11309C01748002304220968007801F0EFFE154956
S11309D01548002304220968007801F0E7FE134952
S11309E01348002304220968007801F0DFFE022284
S11309F001231046072101F0D9FE07200D4900F01C
S1130A0007FD072201231146CDE90033022000230C
S1130A1001F05CFE002003B05DF804FBA41000208C
S1130A207E100020041000207D1000200010002003
S1130A307C1000204109000008B504F087F804F098
S1130A4086F8044B0449186804F0D4F9BDE808405A
S1130A50FFF7AEBF241100209F55000010B5234CB2
S1130A6001F08AF801F078FA236F23F0070343F0CA
S1130A700303236704F028F91D4B00209B6A9B079E
S1130A805EBF01221B4B9A62D4F8203123F003038A
S1130A9043F00203C4F82031D4F8243123F00703CF
S1130AA043F00203C4F82431D4F8403123F00303A3
S1130AB043F00203C4F84031D4F8603123F0030357
S1130AC043F00203C4F86031D4F8403223F0030346
S1130AD043F00203C4F84032D4F8003223F0070391
S1130AE043F00203C4F8003210BD00BF0080005080
S1130AF000C0005000E0005008B501F0E5FF0128F7
S1130B000ED1104B04205A6E4FF480230E49520329
S1130B1058BF0E4A4B6601F51041086258BF536630
S1130B2002F04AF804F01FF801F0D6FF02F02EF8A4
S1130B3001F0F4FFFFF792FF01F0DEFFBDE808408B
S1130B4004F008B8008000500090005000A000504D
S1130B5030B59DB0284D09AC0FCD0FC495E80F00FA
S1130B6084E80F00222200210DF14A0004F0EDFB7D
S1130B70224B012411933823139305231593062341
S1130B8017930823199307231B9303230E22002191
S1130B900DF116008DF849408DF8483004F0D5FB6E
S1130BA04FF4801C164B1748CDE903C33E238DF840
S1130BB014303F238DF81530134B09AA06932023D4
S1130BC00793124B03A9009311AB8DF8214002F057
S1130BD03DF8044618B17C210D4804F030F89DF826
S1130BE022304FF4E130002B0CBF0321002104F02C
S1130BF003F820461DB030BDE85500000000035A3C
S1130C003400035A0C110020F7150020A81000200E
S1130C10B6550000014804F050B900BF0C11002083
S1130C2008B50122074B1A700022074B1A700422E0
S1130C30064B1A701F22064B1A7001F0E7FF054B92
S1130C40186008BD811000201716002080100020B5
S1130C507F100020241100200348044A0449121A7A
S1130C60921003F0D9BF00BFC8590000C859000052
S1130C702016002008B500F02FF8FFF7EDFF124B07
S1130C8012498B4212D30020114B12498B4218D3C4
S1130C90FFF7E4FD186850F82240586840F82240F5
S1130CA0013298688242F5D30C33EAE70022F8E770
S1130CB01C6844F8220001325C68A242F8D308336D
S1130CC0E4E70022F8E700BF305900003C59000077
S1130CD03C5900003C59000010B54FF400414FF05E
S1130CE0FF30124B124A9A60D3F8882042F4700203
S1130CF0C3F888200F4A916601F1884101F500523A
S1130D0010664FF6DF7050660220C3F8D000BFF3C0
S1130D104F8FBFF36F8F08244FF440330648C0F859
S1130D208041D36004600B6110BD00BF00ED00E0A2
S1130D30000000000090005000E100E0014B186842
S1130D40704700BF0C100020084B1B6F03F0070313
S1130D50022B04D0032B05D0012B05D0FEE7044B56
S1130D6018687047034BFBE7034870470080005046
S1130D700C10002014100020002D310108B5FFF7DD
S1130D80E3FF054B1B6FC3F303330133B0FBF3F0F5
S1130D90024B186008BD00BF0080005008100020FE
S1130DA00048704700B4C404014B1868704700BF82
S1130DB014100020054B1860054B1B6F03F007034C
S1130DC0032B01D1FFF7DABF704700BF14100020D6
S1130DD00080005000487047002D3101014B186815
S1130DE0704700BF101000200346054A05491068EB
S1130DF003448B428CBF4FF0FF301360704700BF39
S1130E00181000200080002008B501213A2000F0CD
S1130E10F9FC032101230422002001F0C7FC002077
S1130E2003F0AEFF0122214B4FF46070C3F8442459
S1130E3000F012FD1E4B00F5D520D3F8F02000F28F
S1130E40FC4042F00102C3F8F020D3F8FC2042F049
S1130E508072C3F8FC20174AA3F55D431A60164B51
S1130E600222B0FBF3F0154B01381861C3F8F020EF
S1130E704FF48072C3F804234FF06043104A0020FB
S1130E80C3F8B02F0F4AC3F8802ED3F8002E42F4D3
S1130E908072C3F8002EFF2283F82020D3F8002E9E
S1130EA022F48072C3F8002E08BD00BF00D00350A6
S1130EB000ED00E0FF030040F8590D00000004E0DD
S1130EC055CEACC50900010030B54FF06043D3F8EE
S1130ED0802ED20715D501240B4D8440D5F8FC2073
S1130EE042F08072C5F8FC20D3F8002E2243C3F8E8
S1130EF0002E53F82020002AF0D003F82010002000
S1130F0030BD1120FCE700BF00ED00E02DE9F04FFB
S1130F1085B09A46554B06461B780F461546DDF8B4
S1130F203C909DF844B0DDF85080002B00F0978091
S1130F30072A00F296800E9B002B00F09280B9F1F4
S1130F40000F00F08E80129BB3F5006F00F38980D0
S1130F50012803D1109B002B00F08380444B03EB4A
S1130F6005131B7B002B7ED0424C102200216846C7
S1130F7004F0EBF904EB45141022A7BB39462046D4
S1130F8004F0E3F943F210036380BBF1000F03D1D3
S1130F90E37843F00303E370364A0E9B02EB451CEF
S1130FA0CCE90193129B6901581E9DF84C30C0F3A3
S1130FB00A0003F003039B0643EA001E53582E481D
S1130FC0012E00EA03004EEA0003CDF800A05350BE
S1130FD017D0B8F1000F2ED19CF8023068F3041337
S1130FE08CF8023027E00021204604F0AEF94FF4DB
S1130FF044736380BBF1000FCED1E37843F0300338
S1131000C9E713230CF1100ECCF80C309CE80F0048
S11310108EE80F006FF00301DCF81C20109B61F3D5
S11310209F02012FCCF81C20CCF8143003D1CCF84B
S11310301890CCF8043000270D4A290102EB05135F
S113104042F80180159A28465A60694622469F60F4
S11310505E7301F07BFC384605B0BDE8F08F0748AD
S1131060FAE70748F8E70748F6E700BF1816002034
S113107028120020281100200F80FFF3028000F0C6
S1131080018000F0078000F038B5124B05461B784C
S1131090DBB1E0B103F034FE0F4A00231146147BA8
S11310A054B92B6001251A0101EB03131D738C50F5
S11310B003F02CFE204638BD0133082B02F1100248
S11310C0EDD103F023FE0548F5E70548F3E70548AD
S11310D0F1E700BF1816002028120020048000F059
S11310E0028000F0018000F038B503F009FE00230F
S11310F005460B4A147B6CB90133082B02F110022C
S1131100F8D101F09BFB074B28461C7003F0FEFD51
S1131110204603E0284603F0F9FD034838BD00BF2C
S11311202812002018160020058000F010B50D4B81
S113113004461B7893B1072812D803F0E1FD0A4B4B
S113114003EB04131A7B2AB100241C7303F0DEFDA5
S1131150204610BD03F0DAFD0448FAE70448F8E736
S11311600448F6E71816002028120020068000F034
S1131170028000F0018000F013B5154B18680023BD
S113118001908DF8043003F0BBFD124B1C7824B1A0
S113119003F0BCFD104802B010BD01221A7003F028
S11311A0B5FD0E4B01A81C731C7783F82C4083F803
S11311B03C4083F84C4083F85C4083F86C4083F8EF
S11311C07C4008238DF8073001F076FB2046E2E7E7
S11311D00856000018160020038000F02812002092
S11311E008B50A4A12785AB107280BD8084A02EB04
S11311F000131B7B43B1002101F03EFB002008BD1E
S11312000448FCE70448FAE70448F8E71816002005
S113121028120020028000F0018000F0078000F016
S113122008B50A4A12785AB107280BD8084A02EBC3
S113123000131B7B43B1012101F01EFB002008BDFC
S11312400448FCE70448FAE70448F8E718160020C5
S113125028120020028000F0018000F0078000F0D6
S113126008B50A4A127852B107280AD8084A02EB8C
S113127000131B7B3BB101F0E9FB002008BD0548CE
S1131280FCE70548FAE70548F8E700BF1816002010
S113129028120020028000F0018000F0078000F096
S11312A00D4B1B7893B1072812D889B10B4B03EB74
S11312B000131B7B73B10A4B1A6D01238340134245
S11312C014BF0123002300200B70704705487047AA
S11312D0054870470548704718160020281200205A
S11312E000000450028000F0018000F0078000F04C
S11312F010B50B4A0C46127862B107280CD859B1C4
S1131300084A02EB00131B7B43B101F0BBFB2070C6
S1131310002010BD0448FCE70448FAE70448F8E755
S11313201816002028120020028000F0018000F02E
S1131330078000F02DE9F041174B1F6D5B6D1F40D6
S113134000D5FEE701260025144CDFF8588037420B
S113135018D02368C8F85060A3B1A16828460131A9
S11313606268A1609847637B012B0BD150B90C4B89
S113137003EB45131A7B60F341021A731A7F60F37F
S113138041021A770135082D4FEA460604F110048C
S1131390DDD1BDE8F08100BF000004502812002018
S11313A0281100200020045070B5012504460B4E7E
S11313B004B970BD94FAA4F0B0FA80F005FA00F311
S11313C006EB001224EA03045368002BF0D0117BCF
S11313D011B191689847EBE79847E9E7A812002014
S11313E008B5192000F0DAFD28B14FF00072074B60
S11313F0C3F880211A601A2000F0D0FD28B14FF004
S11314008062024BC3F880211A6008BD00E100E04D
S113141038B505460C4603F073FC0022044B03EB7D
S113142005135C601A73BDE8384003F06FBC00BF5D
S1131430A8120020074BD3F82404D3F8202403F582
S11314400053104000F0553020F05020C3F8200421
S1131450FFF7AABF00C00350074BD3F82404D3F806
S1131460202403F50053104000F0AA3020F0A020FF
S1131470C3F82004FFF798BF00C00350044BD3F80F
S11314808420D206FBD4D3F88400C0F381107047C3
S11314900040005038B5104B0546D3F820310C46B7
S11314A003F00303022B0BD0032B0DD0012B0FD120
S11314B0FFF744FC052305B1286004B1236038BD5F
S11314C0FFF772FC0323F6E7FFF784FC0223F2E73D
S11314D001230020EFE700BF00800050F7B500278C
S11314E0114B0197D3F88041064604F00304012C04
S11314F00D4608D0022C12D041F2B1310B4803F052
S11315009EFB3C4604E0394601A8FFF7C3FF0F24C5
S11315100EB1019B336005B12C6003B0F0BDFFF741
S113152059FC0190F4E700BF008000500C56000005
S113153038B51A4B0546D3F824010C4600F00700D1
S1131540062821D8DFE800F0280410181C0C140029
S1131550FFF7F4FB052305B1286004B1236038BD0F
S1131560FFF7ECFB0623F6E7FFF71EFC0323F2E785
S1131570FFF71AFC0423EEE7FFF72CFC0223EAE74B
S113158003F055FB0723E6E7054840F6A87103F08E
S113159056FB00231846DEE70123DCE700800050F9
S11315A00C56000038B5104B0546D3F840310C46B4
S11315B003F00303022B0BD0032B0DD0012B0FD10F
S11315C003F037FB092305B1286004B1236038BD5B
S11315D0FFF704FC0823F6E703F02EFB0B23F2E7E6
S11315E001230020EFE700BF0080005038B5164B00
S11315F00546D3F800020C4600F00700042819D869
S1131600DFE800F020030B0F130003F012FB0923A3
S113161005B1286004B1236038BDFFF7DFFB082360
S1131620F6E703F009FB0B23F2E7FFF7A7FB0E2312
S1131630800AEDE7054841F26F4103F000FB002307
S11316401846E5E70123E3E7008000500C5600004C
S113165038B5124B0546D3F840320C4603F0030369
S1131660022B0BD0032B0DD0012B0FD103F0E1FA89
S1131670092305B1286004B1236038BDFFF7AEFB30
S11316800823F6E703F0D8FA0B23F2E7044841F203
S1131690FA3103F0D4FA00231846EAE70080005038
S11316A00C56000038B5104B0546D3F860310C4693
S11316B003F00303022B0BD0032B0DD0012B0FD10E
S11316C003F0B7FA092305B1286004B1236038BDDB
S11316D0FFF784FB0823F6E703F0AEFA0B23F2E7E7
S11316E001230020EFE700BF0080005010B40F4C2E
S11316F00B46D4F8204204F00304012C0ED0022C33
S113170010D008B1002101600BB100221A6040F62C
S1131710D27107485DF8044B03F091BA5DF8044BAD
S1131720FFF7B8BE5DF8044BFFF73CBF00800050E4
S11317300C56000010B5B0F5207F34D009D8B0F5B0
S1131740007F2AD003D898B1B0F5C07F10D0002410
S113175021E0B0F5607FFAD1154BD3F88030C3F3A4
S113176001149B0617D5032C15D040F295210FE0E8
S11317700F4B1C6F230B13F00E0FC4F303340AD06A
S1131780072C08D00F2C06D0032C04D040F285215E
S1131790084803F054FA601C10BD054BD3F8904080
S11317A0C4F30464F7E7024B1C6FC4F38024F2E72C
S11317B0008000500C56000010B54FF400320E4B60
S11317C004469A660020FFF7B5FF604341F6713284
S11317D00A4C0B4BA04294BF00200120D969DA6364
S11317E09A6822F4401242EA00529A60CA0344BF43
S11317F00022DA6310BD00BF00900050005A62025C
S11318000000035070B5460904460D460ED140F25F
S11318102F310D4803F013FA334604F01F047DB151
S113182003F580530122A2401A6070BD012E05D039
S1131830064B074A022E18BF1346EEE7054BECE7AA
S113184003F50053EEE700BF0C560000688000501B
S1131850608200506480005030B585B00023802839
S11318600446019374D02AD8002877D0A0F120042C
S1131870412C32D8412C30D8DFE804F070737073F7
S1131880888888887373923FA8653F7373732F2F7A
S11318902F2F2F2F8D57737373B2AD732F2F2F2FBD
S11318A02F2F2F2F2F2F2F2F2F702F707070882FE7
S11318B02F2F2F2F2F2F2F2F2F2F2F2F7070B0F56B
S11318C0806F63D024D8B0F5007F55D00BD8B0F525
S11318D0807F6AD0B0F5C07F40D040F29441434845
S11318E003F0ADF937E0B0F5607F45D0F5D8B0F539
S11318F0207F36D0B0F5407FEFD1FFF73FFA0446A2
S11319004FF42070FFF716FFB4FBF0F4640831E0E5
S1131910B0F5C06F5AD00DD8B0F5A06F3BD0B0F57C
S1131920B06F3DD0B0F5906FD7D1002101A8FFF77B
S1131930FFFD10E0B0F5E06F4DD0B0F5F06F4FD083
S1131940B0F5D06FC9D1002101A8FFF74FFE02E026
S1131950FFF7FAF90190019805B030BDFFF70EFAD0
S1131960F8E7FFF70BFA04464FF42070FFF7E2FEA6
S1131970B4FBF0F40194EEE7FFF7E6F905462046E0
S1131980FFF7D8FEB5FBF0F50195E4E7002101A8C7
S1131990FFF780FDDFE7002101A8FFF7A7FEDAE7E4
S11319A0002101A8FFF79AFDD5E702934FF0E02349
S11319B01B695B0705D5FFF7E1F90290029B0193D0
S11319C0C9E703A902A8FFF7EDFDF7E7002101A885
S11319D0FFF7E8FDBFE7002101A8FFF739FEBAE7EA
S11319E0002101A8FFF75EFEB5E700BF0C5600001A
S11319F008B58020FFF730FF034B98429EBF4FF499
S1131A008032024B1A6708BD005A620200A00050DF
S1131A101FB50023B0F5807F01937FD027D83828E5
S1131A2000F09C800BD82438092810D809280ED837
S1131A30DFE800F06F6F6F6F0D0D670D368552286C
S1131A4067D007D83D283AD03E2800F08C8040F279
S1131A50795152E08028FAD1454B1B6F03F00703FC
S1131A60013B032B47D8DFE803F044413F75B0F551
S1131A70D06F64D019D8B0F5A06F6FD00AD8B0F584
S1131A80806F46D0B0F5906FE1D1002001A9FFF737
S1131A904FFD3AE0B0F5B06F33D0B0F5C06FD6D19A
S1131AA0002001A9FFF77EFD2FE0B0F5006FECD018
S1131AB00AD8B0F5E06F56D0B0F5F06FC7D100206A
S1131AC001A9FFF7EFFD20E0B0F5086FBFD1284B67
S1131AD0D3F8003103F00303022B35D0032B37D0A6
S1131AE0012B39D1FFF760F9032300E005230193AB
S1131AF00BE00223FBE740F2C6411E4803F09FF8C7
S1131B0003E0002001A9FFF7E9FC019805B05DF8A6
S1131B1004FB002001A9FFF7BDFCF6E702934FF098
S1131B20E0231B695B0705D5FFF728F90C23039312
S1131B30039BDCE703A902A8FFF734FDF8E70020C4
S1131B4001A9FFF753FDE0E7FFF748F90823CEE7C3
S1131B5003F06DF80723CAE70123C8E7002001A9B1
S1131B60FFF7C4FDD1E7002001A9FFF771FDCCE721
S1131B70008000500C5600004FF40022034B5A66BC
S1131B80012203F580439A62704700BF0090005021
S1131B90F8B5036804460F2B04D940F66D316C4840
S1131BA003F04DF863680F2B04D94FF4376168488C
S1131BB003F045F8A3680F2B04D940F67331644849
S1131BC003F03DF8237B0F2B04D940F676316048AF
S1131BD003F035F8637B0F2B04D940F679315C4868
S1131BE003F02DF8A37B3F2B04D940F67C315848F1
S1131BF003F025F8E37B3F2B04D940F67F315448AA
S1131C0003F01DF82369032B04D940F682315048B0
S1131C1003F015F86369032B04D940F685314C4869
S1131C2003F00DF8E369012B04D940F688314848E4
S1131C3003F005F88020FFF7EBFE032800F087800F
S1131C404FF40022434B02215A6645F60E03424AE2
S1131C50C2F88030414B9962012103F580539962A7
S1131C60936DD903FCD4D4E900131B0543EA016343
S1131C70E17B94F820500B43217BE77E43EA014348
S1131C80617B6D0143EA0133A17B43EA8113136154
S1131C909169D4E904031B0643EA806301F000411F
S1131CA00B43A17E94F823000B43217E43EA0143B6
S1131CB0617E43EA01239361136AE66923F00D030D
S1131CC094F8221043EA8703002E2DD11362966AFA
S1131CD094F8213045EA031326F033052B4343F0EF
S1131CE0010393621E4D1C4B9A6D35EA0202FBD12F
S1131CF002221A4DAA621A659A6D5200FCD41A691E
S1131D00A56822F4700242EA05521A614FF00042BB
S1131D10124B9A6119B9022203F580539A6278B979
S1131D200122104B9A620BE0334343F00803136221
S1131D30936A23F0330303432B4343EA410393623F
S1131D4094F824301BB1044B074AC3F88020F8BD33
S1131D500C5600000090005000C0005000D000500D
S1131D600300014000E00050F1A7FFFF014B93F98D
S1131D70000070471916002010B543680446072B6D
S1131D8004D940F6B3512A4802F059FFA368032B43
S1131D9004D940F6B551264802F051FF2378032BAD
S1131DA004D940F6B751224802F049FF94F90130B2
S1131DB0002B04DA40F6B9511D4802F040FF4FF4FD
S1131DC080011C4A637851664FF4D151022002F518
S1131DD0B832516218494F2B48604FF0010028BFB8
S1131DE04F2301F5805148601169C903FCD421785F
S1131DF043EA01235361D4E901131B0143EA01239C
S1131E00617B0B43217B43EA41039360E37BA17B2A
S1131E101B0143EA4113617C0B43217C43EA4103E8
S1131E205360A37C13B16FF4D153536210BD00BF50
S1131E300C5600000090005000100250014B188016
S1131E40704700BF7A100020014B1880704700BF14
S1131E507810002010B5B0F5207F65D00ED8B0F50D
S1131E60007F4FD003D800B3B0F5C07F1DD040F23F
S1131E701231BDE81040344802F0E1BEB0F5607F95
S1131E80F5D14C1E012C06D9042904D04FF43D7120
S1131E902D4802F0D4FE2D4AD2F8803023F03003CE
S1131EA043EA0413C2F8803010BD4C1E012C0AD939
S1131EB0102903D8264BCB40DB0704D440F2C721BA
S1131EC0214802F0BCFE02F0ECFE02F0F8FE4FF4F2
S1131ED08031204B1D4A1967136F23F4704343EA82
S1131EE004331367FEF74AFF0446FFF7C7FAC0F14D
S1131EF00201204602F0DDFE00F03EF8BDE810408D
S1131F00FFF776BD4C1E1F2C04D940F206310E4853
S1131F1002F095FE0D4AD2F8903023F0F85343EACC
S1131F200463C2F89030BFE74C1E012C04D94FF46F
S1131F304371054802F083FE044A136F23F480635F
S1131F4043EA84231367AFE70C5600000080005077
S1131F50100101000090005008B50121022000F09A
S1131F6041F802F09EFE02F0AAFE4FF48032014BCB
S1131F701A6708BD0090005008B54FF4C070FFF711
S1131F806BFCBDE808400449884294BF012102214A
S1131F904FF42070FFF75EBF80F0FA0210B5C3B2B1
S1131FA03F2B044604D94FF44D71074802F047FE15
S1131FB0064B620953F8220004F01F04E040C043BA
S1131FC000F0010010BD00BF4A56000000E100E02F
S1131FD0034A0179D36E23F030030B43D366704771
S1131FE000400050F8B50446244BD3F88420D006B2
S1131FF0FBD4D3F88430C3F381139C423CD0FEF766
S1132000A3FE012C05460BD11D4B984204D940F286
S113201081711C4802F013FE0121284602F049FE9A
S113202002F067FE4FF00072174B07465A662046CF
S113203002F06FFE4FF48063104E621E93403367CC
S1132040736E9A0103D4D6F884309B060AD53846B9
S113205002F053FE022C0FD12846BDE8F8400021BF
S113206002F027BED6F884309906E9D540F28F7184
S1132070044802F0E4FDE3E7F8BD00BF004000506F
S1132080005A6202895600000060005010B50C46E8
S113209008B9FEF759FE074B21461B783BB1064BA6
S11320A0984204D80120BDE81040FFF79BBF0220EE
S11320B0F9E700BF1A160020005A620238B54FF043
S11320C00042264B26495A6601224A604AF6CD311F
S11320D003F50B235D6C1964154030BB9968C9077F
S11320E00BD4002401221F4B5A6015B11E4B1F4A0A
S11320F01A6402F00FFE204638BD1A498A601C4A51
S1132100D96ACC0705D4904201D10724EAE701300B
S1132110F6E79042E5D1F8E70132DC6A14F00804EE
S113212006D08A42F8D10724DFE700221049F4E7F9
S11321308A42F8D020220B4B0B495A620122A3F5A4
S113214080539A6023460A4A486A800603D493421D
S1132150E9D00133F8E79342C7D1E4E70090005097
S11321600050095000600950004009503254FFFFEC
S113217040420F0038B54FF00042174B174C5A66D7
S1132180012203F50C235A604AF6CD33656C2364AF
S1132190437893401343124AD363C3788178A26887
S11321A09B0043EA011322F074021343A3600279F3
S11321B0837943EA022323614279C37943EA022300
S11321C063610078FFF77AFFEB0744BF054B236494
S11321D002F0A0FD012038BD0090005000400950DD
S11321E0004000503254FFFF10B5044602F097FD42
S11321F0002341F202020849E360A360226104F56E
S11322000052E3616361A36123626362E362A364D6
S11322105164A36210BD00BF7F370C0138B5154B64
S1132220044698420D4604D04FF4B371124802F0AC
S113223006FD25B92046BDE8384002F070BD0122F4
S113224004F580535A6040F2FF71204605F00F02F6
S113225002F061FD2263782102F05DFD05F00103C7
S11322606A0748BF43F00203226C02F003029A4259
S1132270FAD138BD0000035AC7560000F8B5064627
S11322800C46154622B94FF40971434802F0D7FCB5
S1132290424B9E4202D184B938240AE040F22721FD
S11322A03D4802F0CCFC44B940F276313A4802F0A1
S11322B0C6FC2046FFF7D0FA04467368012B04D00D
S11322C040F25921344802F0BAFCB36803F0E00349
S11322D0402B42D009D893B1202B1AD040F29B2135
S11322E0BDE8F8402C4802F0AABC602B42D0802BF9
S11322F0F4D105EB4503A34247D801230DE0B5EB28
S1132300141F04D940F28121234802F098FC1023C1
S113231003E0B5EBD40F1AD808236B436401B4FB74
S1132320F3F41F4F203CB7EBC40F4FEAC40504D2AB
S113233040F2A621184802F082FC30463D400121BB
S113234002F0E9FCB562BDE8F84002F0E4BC40F2FA
S11323508621114802F073FCDEE70623B4FBF3F395
S1132360AB4201D30623D8E740F28B210A4802F09E
S113237066FCF7E7B5EB940F01D80423CDE74FF4DF
S11323802471054802F05BFCF7E740F2952102480E
S113239002F055FCB1E700BFC75600000000035A25
S11323A0F8FF7F0070B5436804460D4616461BB11E
S11323B040F2FF7102F0AFFC2046FFF715FFE989F8
S11323C06B7B22690B43298A22F44C520B4322F083
S11323D0030213432361A2682B7B297E22F08042EF
S11323E022F0E2020B4313436A691343A360AB6810
S11323F01BB9A36843F00043A360EB69002B57D0DB
S1132400987A1A7A4004A16840EA82503F4A0A4006
S113241010439A8802F4C04210435A7840EA82007A
S11324205A7B40EAC2009A7B40EA02109A7840EA5A
S11324308220A060E168D3E9042021F4D81121F4BA
S1132440C06102430A43997942EA8122D97942EA76
S11324504122E2601A78012A05D1E26842F00402BE
S1132460E2602B4A06E0032A3ED1E26842F004020D
S1132470E260284A0121C2F8C0105A7A04F580515A
S11324800A621AB1E26842F40062E260DA7A4AB19E
S1132490E268214942F40042E2601A7B02F00F0232
S11324A0C1F88020E269DB7B22F003021343E3617D
S11324B036B196F8203004F58051CBB101238B61FD
S11324C005212046FFF7AAFEAA681AB120466968CA
S11324D0FFF7D4FE20462978FFF7A0FE236CDB43E8
S11324E013F4405FFAD170BD023A012AC1D9B8E7AA
S11324F0626996F8223096F8210022F0090203431B
S1132500134343F001034B61DAE700BFE39BBDFFD4
S113251000E4035000D403500090035038B5294B15
S1132520054698420C463FD119B98C21264802F041
S113253086FB3820FFF76CFA083808283DD8234B6F
S11325400341DB0739D4637B032B03D9AA211E483B
S113255002F075FB237B802B03D0AC211A4802F0D8
S11325606EFB6369B3F1804F03D0AE21164802F0CD
S113257066FB238A23F400539BB2B3F5805F03D038
S1132580B021114802F05BFBA368013BB3F5165F71
S113259003D3B2210C4802F052FB21462846BDE881
S11325A038400022FFF7FEBE8A21074802F047FBAD
S11325B01CB98C21044802F042FB9E21024802F01F
S11325C03EFBC0E70000035AC7560000F4FEFFFFBD
S11325D038B5114B054698420C4603D070210F487C
S11325E002F02DFB1CB972210C4802F028FB237B5E
S11325F0802B03D17621094802F021FB637B032B56
S113260003D97921054802F01AFB21462846BDE882
S113261038400022FFF7C6BE0000035AC756000028
S113262070B51F2904460D46164603D99121064864
S113263002F005FB2EB104F580540123AB40236066
S113264070BD04F50054F8E70857000038B50328B6
S113265004460D4605D80B4B33F81030CB40DB074E
S113266004D440F22D41084802F0E9FA3022012353
S1132670544341F2100204F1A044AB4004F5703419
S1132680A35038BD865700006055000038B50328B4
S113269004460D4605D80B4B33F81030CB40DB070E
S11326A004D440F2FE31084802F0C9FA3022012372
S11326B0544342F2100204F1A044AB4004F57034D8
S11326C0A35038BD86570000605500002DE9F84F2F
S11326D0032807460E46144698469DF828A09DF800
S11326E02C9005D8274B33F81030CB40DB0703D4AC
S11326F0BF21254802F0A3FA86EA0403032B03D979
S1132700C121214802F09BFA072C4FF0030506F083
S1132710030625D84FEA840B05FA0BF529461B4816
S113272007FA0BF202F01DFB2946194806FA0BF2D0
S113273002F017FB424621461648FFF771FF524646
S113274021461548FFF76CFF0123144AA340C2F841
S1132750203421464A46BDE8F84F1148FFF760BFD0
S1132760A4F1080B4FEA8B0B05FA0BF529460D482B
S113277007FA0BF202F0F5FA29460B4806FA0BF2B7
S1132780D6E700BF865700004657000000C4035038
S113279008C4035010C4035014C4035000E0035091
S11327A024C4035004C403500CC40350F8B50328D4
S11327B004460D4616461F4605D81C4B33F8103008
S11327C0CB40DB0704D44FF4B071194802F037FA58
S11327D026B129462046CFB1FFF738FF04EB440366
S11327E0072D4FF00F014FEA031312D8A80006FA81
S11327F000F281400F48184402F0B3FAAEB92946FA
S1132800204677B1BDE8F840FFF720BFFFF73EFF51
S1132810E4E7A5F10800800006FA00F281400648CA
S1132820E9E7BDE8F840FFF731BFF8BD865700007F
S11328304657000004C003500CC0035010B54FF4B9
S113284000120B4BC3F88020BFF34F8FBFF36F8F81
S11328500024FF22074B21465C6520209A625C60BD
S1132860FEF7D0FF2146BDE810402120FEF7CABF85
S113287000E100E00000045038B5072804460D4686
S113288003DD7721084802F0DAF91F2C03D99121DE
S1132890064802F0D4F9064A064B002D08BF134639
S11328A00122A2401A6038BD8E570000085700006C
S11328B0401004504020045010B5044618B991212A
S11328C01F4802F0BCF923781B0613F0604F03D0B5
S11328D092211B4802F0B3F9E3780F2B03D9A3210B
S11328E0174802F0ACF901212020FEF78BFF0121EB
S11328F02120FEF787FF0122124B5A60227812062C
S11329009A606178A27842EA01429A61FF229A624F
S113291000229A631A644FF000425A654FF0FF3266
S11329204FF4001103F500531A65074AC2F88011E9
S1132930E3781B01DBB282F81533116010BD00BFD0
S11329408E5700000000045000E100E02DE9F04142
S11329500126C3B2072805460C46904606FA03F63C
S113296003DDEC21354802F06AF91CB9ED21334846
S113297002F065F9236823F47C1323F00F031BB1E1
S1132980F0212E4802F05BF9A37A1B0413F47C0FA8
S113299004D040F20911294802F051F9E37A1B05E9
S11329A013F07E6F04D040F20B11244802F047F973
S11329B0237B5B0513F0FE5F04D040F20D111F482A
S11329C002F03DF91E4B1F4F1E65226803F50053AC
S11329D043F82520302202FB0575637B2B66E37ADE
S11329E0A27A1B0543EA0243227B43EA4253EB6586
S11329F028F003032B6702F083F97B6D33437B6577
S1132A00237A13B13B6C33433B64637A13B1BB6BDE
S1132A103343BB632279A37943EA0243084A9361AF
S1132A206179E37943EA014307498B61054B5663B6
S1132A309E64BDE8F04102F069B900BF8E57000002
S1132A4000200450000004500010045010B501246C
S1132A50C3B2072804FA03F404DD40F297110748CF
S1132A6002F0EDF802F04CF9054B5A6D22EA04022B
S1132A705A659C62BDE8104002F048B98E570000C8
S1132A800000045010B50124C3B2072804FA03F46B
S1132A9004DD40F2B5110A4802F0D1F802F030F931
S1132AA0084BDA6A224208D15B6B9C430CBF0124B9
S1132AB0002402F02BF9204610BD0024F9E700BFE2
S1132AC08E57000000000450024B1868C0F3074002
S1132AD0704700BF0080E00F07B56B46054A1068D9
S1132AE0516803C36846FFF745FB002003B05DF857
S1132AF004FB00BFCD57000013B50024064A684606
S1132B00536F43F00103536700948DF80440FFF7BB
S1132B105FFA204602B010BD0040005030B58BB0C3
S1132B206C46174D0FCD0FC40FCD0FC495E80300AD
S1132B3084E80300134BD3F84C2112031CD5A3F5EE
S1132B40FE431C884FF6FF739C4208BF8C248DF80B
S1132B501940FFF70BF9204480F308008DF81800A2
S1132B600948FEF727F96846FFF712F83220FFF705
S1132B706BF900200BB030BDD3F85041E4B2E6E766
S1132B80D85700000080E00F00F0490230B587B04C
S1132B90084D01AC0FCD0FC42B6801A82360192385
S1132BA08DF80530FFF7E8F83220FFF747F90020E9
S1132BB007B030BD0058000010B56FF00403502179
S1132BC00A480B4C13F0800F03F1010207D1234490
S1132BD0402A83F800131346F4D1002010BD03F0FB
S1132BE00F03043B034419761346EBE700ED00E0C2
S1132BF000E100E010B5044602F07BF8024B1C60D3
S1132C0002F07BF8002010BDA814002010B502F0DB
S1132C1070F8034B1C6802F070F8204610BD00BF2A
S1132C20A814002038B50C461546014610B9FFF724
S1132C30EDFF01462B462246034800F023FE002800
S1132C40D4BF3720002038BDEB4D00002DE9F04300
S1132C508DB01C4606AB06468946184690460021B0
S1132C601822149D02F071FB227903460AB18DF8F3
S1132C701820C8F81C3063790127C3F10203DBB2C2
S1132C80CDE90333644B30460293644B4A460193C7
S1132C90002329460093624B8DF81E7000F0E2FA7F
S1132CA00646002840F09280A3683946EB63A36986
S1132CB03A20EB64237DDFF8749185F8483023696A
S1132CC06B64237B85F84030236A6B65237F85F82A
S1132CD05030A36AEB6594F8243085F858302368A3
S1132CE0AB63FEF78FFD3B4604222169207BFFF78F
S1132CF05DFD3B460222A169207DFFF757FD88F860
S1132D00006085F860603946A068FEF77BFD637952
S1132D10394633BB4FF4C060FEF774FDD9F8203256
S1132D20414623F0030343F002032068C9F820322C
S1132D30FFF7F4FB02223B4B2169C3F8C020227B3E
S1132D4042EA0142C3F8D020A169227D42EA01424D
S1132D50C3F8CC202379032B5BD8DFE803F02E19CA
S1132D603B544FF48060FEF74DFDD9F820324146C4
S1132D7023F0030343F00103C9F820322068FFF76E
S1132D8027FC95F8603043F0040385F86030D1E700
S1132D90002795F8603043F0010385F86030022283
S1132DA00023216A207FFFF701FD226A237F43EA83
S1132DB002431D4AC2F8C43097B90422AB6B052103
S1132DC003F5805320689A64FFF728FA30460DB063
S1132DD0BDE8F08395F8603043F0020385F8603075
S1132DE000230422A16A94F82400FFF7DFFC0123E6
S1132DF00D4AA16AC2F8C03094F8243043EA014372
S1132E00C2F8C830D9E795F86030012743F00303CE
S1132E10C3E72326DAE700BF0F4E00007F4E000011
S1132E20AF4E000000C4035000D403500080005093
S1132E3010B50020144601F0A4FF022804D018B1F4
S1132E40C321024801F0FBFE204610BD14580000C7
S1132E50034B0222186800238068194601F006BC5F
S1132E602810002038B53022037A0446534303F176
S1132E70A04303F58023DD6ED0E9032313449D4270
S1132E8001D8AA4204D94FF43E71054801F0D7FE97
S1132E90D4E9030303449D4218BF284638BD00BF4C
S1132EA07158000030B587B0144605461046FFF748
S1132EB0D9FF6369024683423CBFD4E903315B18FE
S1132EC01B1AABB11249049403910021CDE90131DD
S1132ED0012300932846D4E9001301F0C8FE20B171
S1132EE04FF434710B4801F0AAFE002007B030BD46
S1132EF00122627694F82D20002AF6D084F8353029
S1132F001321E369204698472046636A9847ECE713
S1132F10A52E0000715800002DE9F04788B0044642
S1132F200F461646984601F0EBFE8146002E00F04F
S1132F30AD80237E03F0FF02002B00F0E0802046EA
S1132F40FFF790FF63698246984206D1637E23B9F6
S1132F5040F27F316B4801F072FE6569AA459DBF5E
S1132F60D4E903329B185D1BAAEB0505B54228BFC3
S1132F70354601F0C5FE94F82D308246002B40F012
S1132F8096802A463846616902F0EAF963692E465A
S1132F902B4463612CE06069037803F0FD0111297F
S1132FA040F08280216B884205D1A3F111014B428C
S1132FB04B4184F83430013E6369216B01328B420A
S1132FC003F1010308BF236363619542E3D1D4E9AC
S1132FD00323216B1344994208BF2263216B8A4265
S1132FE001D88B4204D84FF46D71464801F027FE96
S1132FF0D4E9032361691344994208BF626161699A
S11330008A4201D88B4204D84FF471713D4801F0D3
S113301016FE0023207A6376FEF7E2F820B140F230
S11330201131384801F00BFE2046FFF71BFF63699E
S113303083423FD10023E568237694F82D306561FF
S113304003B125632046636A98472F4B0494039386
S11330500023029323692A460193012300936368A2
S11330602168207A01F003FE20B140F22D31254879
S113307001F0E5FD207AFEF7D3F820B140F251319A
S1133080204801F0DCFD504601F040FE4846C8F8F7
S1133090006001F03BFED8F80030002B0CBF1B2071
S11330A0002008B0BDE8F08707F8013B84E72E460E
S11330B000228AE70123207A23760DF11E01FEF710
S11330C017F920B14FF450710E4801F0B8FD9DF886
S11330D01E30207A002BCDD00DF11F01FEF7E0F851
S11330E020B140F24631074801F0A9FD9DF81F10B8
S11330F0207A0029BED12246FFF7D4FEBAE716464D
S1133100C4E700BF71580000A52E000070B5044646
S11331100568FFF77BFD844202D10020FFF76AFDBA
S113312095F93630002B11DB012203F01F015B09F6
S11331309B0003F160438A4003F56143C3F8802197
S1133140C3F88020BFF34F8FBFF36F8F287AFEF749
S113315087F820B14FF4ED71104801F070FD287A22
S1133160FDF7E4FF20B14FF4EF710C4801F067FD67
S1133170FDF7BAFF38B10A4B984204D04FF4F1710D
S1133180064801F05CFD00232846C4E90033C4E985
S11331900433A360AB6ABDE870401847715800005F
S11331A0058000F02DE9F84304460D4690F82C8084
S11331B0DFF8AC908E18AE4228D094F82D3083B14D
S11331C001F09EFD237E07461BBB226B63699A4276
S11331D004D040F2F911484601F031FD384601F0BF
S11331E095FD94F83430002BE5D0B8F1000F06D0EB
S11331F02B780A2B03D10D212046E36998472046FA
S1133200E36915F8011B98470028D4D00020BDE8D5
S1133210F8832046FFF726FEE1680138884238BF6C
S11332202069D4F830C03CBF00F1FF304018034699
S11332309C450BD013F80129112A01D0132A07D178
S1133240A2F111035A425A4184F834202063C5E79D
S1133250994282BF236903F1FF335B18E8E700BF9B
S113326071580000F0B587B00C460646154600219B
S1133270382220461F4602F068F895E80300002330
S11332802A692376EB6884E80300C4E904232A7DD1
S1133290E36084F82C20AA7D2363012384F834306E
S11332A084F835300C9B84F82D2023620D9BE76154
S11332B063620E9BA3622B7A84F83630204B346011
S11332C07360204BB360204B3361204B7361204B00
S11332D0F360FDF751FF30B11E4B984203D0102428
S11332E0204607B0F0BD002104F10800FDF7CCFE34
S11332F00028F4D10127184B0494CDE90203236973
S1133300009701936368E2682168207A01F0AFFCBA
S113331004460028E3D195F90830002B0BDB03F0B9
S11333201F025B099B0003F16043974003F561436F
S1133330C3F880711F603046FFF75CFCD0E700BF24
S1133340A5310000192F00005D4F0000634F0000FD
S11333500D310000038000F0A52E00002DE9F04F90
S113336091B09B460B1E0A93AD4B904614BF814609
S1133370994600241A9E9BF8000070B9444538BF52
S1133380224643464FF000000A9928BF08F1FF3255
S1133390C847204611B0BDE8F08F25280BF1010B7A
S11333A006D0224643460A99651CC8472C46E2E7E4
S11333B000230DE02D2A2AD0302A06D0303A092ADB
S11333C04FF0000711D80A2532E043F001038B4681
S11333D0594611F8012B2B2A1CD0EBD8202A1CD0DB
S11333E0232A1DD02A2A2BD000279BF800202E2A1E
S11333F064D19BF801100BF10102A1F130000928FE
S113340043F4806351D800254FF00A0C26E043F0C2
S11334100203DCE743F00403D9E743F00803D6E7EB
S113342043F01003D3E78B4605FB0722A2F13007D4
S1133430594611F8012BA2F130000928F3D9D4E739
S113344056F8047B8B46002FBCBF43F002037F4237
S1133450CBE702460CFB0511A1F13005104610F82C
S1133460011BA1F1300EBEF1090FF2D9114611F87A
S1133470010B6C282CD024D8682830D06A2837D087
S113348011468B461BF8010B672875D857284BD873
S1133490452807D085D9462800F03181472880D1B6
S11334A043F4006343F020033FE12A2907D156F88F
S11334B0045B0BF1020225EAE575D7E75A460025BD
S11334C0D4E7742801D07A28DAD143F48073D8E79A
S11334D050786C28F9D143F44073911CD1E75078AB
S11334E0682802D043F08003CBE743F0C003F4E73D
S11334F043F40073C5E70A2A00F06281072A7FF4C7
S113350050AF43F0210305930823CDE9035310235F
S1133510CDE9011356F8043B22460093484643463E
S11335200A9901F01AFEFAE0A0F158020F2A3FF6B8
S113353038AF01A151F822F0A9350000A3330000EF
S1133540A3330000A3330000A3330000A33300001F
S1133550A3330000A3330000A3330000A33300000F
S1133560A935000049370000A935000023370000C1
S11335700337000023370000A0F16902D2B20F2AFA
S11335803FF60FAF012149F2410C914011EA0C01C1
S1133590B1D0782803F4806122D1002900F0908012
S11335A023F00D02102307E0622803F4806220D187
S11335B042BB23F00C02022312F4007100F083805A
S11335C0CDE907720022CDE9043206F1070A2AF098
S11335D0070A06950292FAE80223CDE900233DE0AA
S11335E06F2812D123F00C0209B123F00D02082335
S11335F0E2E7582816D1002A39D123F00C0242F010
S11336002002CFE723F00D02D5E7692823F010024A
S113361030D023F01C0209B123F01D020A23CBE7AA
S1133620994F000042BB23F01002930527D50736BB
S113363026F00706B24671685AF8083B0A26CDE917
S113364007720027CA0F0029CDE904670695029284
S113365002DA5B4261EB4101CDE900314346224687
S113366048460A9901F0BCFD0446564683E623F019
S11336700D02C4E70029D8D023F01102D5E7D00504
S113368006F1040A01D5336802E0510613D53378F4
S1133690CDE904720A22002B02924FEAD3720395F9
S11336A00192B8BF5B4200934346224648460A99BA
S11336B001F053FDD8E71306E5D5B6F90030E7E786
S11336C023F00C026EE7D00506F1040A06D5CDE915
S11336D00472CDE9023501913368E4E7510608D557
S11336E03178CDE902350023CDE90472CDE9001328
S11336F0DAE7316812F0800F18BF89B2F1E743F0BE
S11337002003CDE90173073626F007060095B6ECD1
S1133710020B4346224648460A99FCF7CDFE04466E
S113372029E6672801D143F40063CDE90173073624
S113373026F007060095B6EC020B4346224648469F
S11337400A99FCF7FDFCEAE713F0020523D04FF0D9
S1133750010A631C0B93224643460A9916F8040B8C
S1133760C8475DB354460B9A1EE0434620200A998D
S1133770C8470AEB04020AF1010A5745F5D8002F9D
S113378007F1FF3308BF002307F1010A1C4408BFF7
S11337904FF0020ADDE7AA46EBE7551C434620201A
S11337A00A99C8472A460134BC42F6D3A7EB0A0358
S11337B0574538BF00230B9A1A440B920B9CDAE549
S11337C03246002D52F8046B14BF29464FF0FF31E6
S11337D00B9232463144107808B18A4211D1A2EBDF
S11337E0060A13F480620C9202D0AA4528BFAA46A6
S11337F013F002030D931BD1AAEB040322460F938B
S113380008E00132E7E7531C0E93202043460A994F
S1133810C8470E9A0F9BD3189F42F4D8A7EB0A030C
S1133820574538BF00230AF101021C4403EB020A86
S1133830A31B0E9304E01D46434622460A99C8473B
S11338400E9BF41816F8010B28B10C9B002BF3D037
S11338506B1E002DEFD10D9B93B12246AAEB0405FC
S113386005E0561C434620200A99C847324653199E
S11338709F42F6D8A7EB0A03574538BF00231C44E0
S11338800B9E78E51FB5CDE90201009302A913460A
S113389003484FF0FF32FFF761FD05B05DF804FB0C
S11338A07F52000081F0004102E000BF83F000433A
S11338B030B54FEA41044FEA430594EA050F08BFC7
S11338C090EA020F1FBF54EA000C55EA020C7FEA8B
S11338D0645C7FEA655C00F0E2804FEA5454D4EB08
S11338E05555B8BF6D420CDD2C4480EA020281EAD2
S11338F0030382EA000083EA010180EA020281EA0A
S11339000303362D88BF30BD11F0004F4FEA01315B
S11339104FF4801C4CEA113102D0404261EB41016A
S113392013F0004F4FEA03334CEA133302D05242F0
S113393063EB430394EA050F00F0A780A4F10104AC
S1133940D5F1200E0DDB02FA0EFC22FA05F28018E6
S113395041F1000103FA0EF2801843FA05F35941CC
S11339600EE0A5F120050EF1200E012A03FA0EFC4B
S113397028BF4CF0020C43FA05F3C01851EBE37175
S113398001F0004507D54FF0000EDCF1000C7EEB92
S113399000006EEB0101B1F5801F1BD3B1F5001FD0
S11339A00CD349085FEA30004FEA3C0C04F10104EF
S11339B04FEA445212F5800F80F09A80BCF1004F18
S11339C008BF5FEA500C50F1000041EB045141EA9A
S11339D0050130BD5FEA4C0C404141EB0101013C63
S11339E028BFB1F5801FE9D291F0000F04BF014652
S11339F00020B1FA81F308BF2033A3F10B03B3F124
S1133A0020020CDA0C3208DD02F1140CC2F10C02B3
S1133A1001FA0CF021FA02F10CE002F11402D8BF11
S1133A20C2F1200C01FA02F120FA0CFCDCBF41EADD
S1133A300C019040E41AA2BF01EB0451294330BDAC
S1133A406FEA04041F3C1CDA0C340EDC04F1140489
S1133A50C4F1200220FA04F001FA02F340EA030060
S1133A6021FA04F345EA030130BDC4F10C04C4F1A6
S1133A70200220FA02F001FA04F340EA0300294686
S1133A8030BD21FA04F0294630BD94F0000F83F4D0
S1133A90801306BF81F480110134013D4EE77FEAB3
S1133AA0645C18BF7FEA655C29D094EA050F08BFFF
S1133AB090EA020F05D054EA000C04BF19461046E0
S1133AC030BD91EA030F1EBF0021002030BD5FEA24
S1133AD0545C05D14000494128BF41F0004130BD4C
S1133AE014F580043CBF01F5801130BD01F00045A0
S1133AF045F0FE4141F470014FF0000030BD7FEA13
S1133B00645C1ABF194610467FEA655C1CBF0B460D
S1133B10024650EA013406BF52EA033591EA030F24
S1133B2041F4002130BD00BF90F0000F04BF00211C
S1133B30704730B54FF4806404F132044FF000054F
S1133B404FF0000150E700BF90F0000F04BF0021C8
S1133B50704730B54FF4806404F1320410F000452E
S1133B6048BF40424FF000013EE700BF42004FEA29
S1133B70E2014FEA31014FEA02701FBF12F07F43A6
S1133B8093F07F4F81F06051704732F07F4208BF5D
S1133B90704793F07F4F04BF41F40021704730B564
S1133BA04FF4607401F0004521F000411CE700BFB0
S1133BB050EA010208BF704730B54FF000050AE033
S1133BC050EA010208BF704730B511F0004502D534
S1133BD0404261EB41014FF4806404F132045FEA36
S1133BE0915C3FF4D8AE4FF003025FEADC0C18BFDF
S1133BF003325FEADC0C18BF033202EBDC02C2F1D1
S1133C00200300FA03FC20FA02F001FA03FE40EA62
S1133C100E0021FA02F11444BDE600BF70B54FF066
S1133C20FF0C4CF4E06C1CEA11541DBF1CEA135544
S1133C3094EA0C0F95EA0C0F00F0DEF82C4481EAAC
S1133C40030621EA4C5123EA4C5350EA013518BFCC
S1133C5052EA033541F4801143F4801338D0A0FBB9
S1133C6002CE4FF00005E1FB02E506F00042E0FB66
S1133C7003E54FF00006E1FB03569CF0000F18BF6C
S1133C804EF0010EA4F1FF04B6F5007F64F5407414
S1133C9004D25FEA4E0E6D4146EB060642EAC621A7
S1133CA041EA55514FEAC52040EA5E504FEACE2E14
S1133CB0B4F1FD0C88BFBCF5E06F1ED8BEF1004F17
S1133CC008BF5FEA500E50F1000041EB045170BD93
S1133CD006F0004646EA010140EA020081EA0301D7
S1133CE0B4EB5C04C2BFD4EB0C0541EA045170BDD3
S1133CF041F480114FF0000E013C00F3AB8014F14D
S1133D00360FDEBF002001F0004170BDC4F1000495
S1133D10203C35DA0C341BDC04F11404C4F1200516
S1133D2000FA05F320FA04F001FA05F240EA020071
S1133D3001F0004221F0004110EBD37021FA04F6A7
S1133D4042EB06015EEA430E08BF20EAD37070BD61
S1133D50C4F10C04C4F1200500FA04F320FA05F0C0
S1133D6001FA04F240EA020001F0004110EBD370C2
S1133D7041F100015EEA430E08BF20EAD37070BD32
S1133D80C4F1200500FA05F24EEA020E20FA04F30B
S1133D9001FA05F243EA020321FA04F001F00041BA
S1133DA021FA04F220EA020000EBD3705EEA430E2B
S1133DB008BF20EAD37070BD94F0000F0FD101F05A
S1133DC00046400041EB010111F4801F08BF013C93
S1133DD0F7D041EA060195F0000F18BF704703F0D1
S1133DE00046520043EB030313F4801F08BF013D58
S1133DF0F7D043EA0603704794EA0C0F0CEA135514
S1133E0018BF95EA0C0F0CD050EA410618BF52EACD
S1133E104306D1D181EA030101F000414FF00000D3
S1133E2070BD50EA410606BF1046194652EA4306E1
S1133E3019D094EA0C0F02D150EA013613D195EA55
S1133E400C0F05D152EA03361CBF104619460AD19D
S1133E5081EA030101F0004141F0FE4141F47001A7
S1133E604FF0000070BD41F0FE4141F4780170BD97
S1133E7070B54FF0FF0C4CF4E06C1CEA11541DBFFC
S1133E801CEA135594EA0C0F95EA0C0F00F0A7F8FE
S1133E90A4EB050481EA030E52EA03354FEA01312B
S1133EA000F088804FEA03334FF0805545EA13133E
S1133EB043EA12634FEA022245EA111545EA106506
S1133EC04FEA00260EF000419D4208BF964244F19D
S1133ED0FD0404F5407402D25B084FEA3202B61ABC
S1133EE065EB03055B084FEA32024FF480104FF490
S1133EF0002CB6EB020E75EB030E22BFB61A754604
S1133F0040EA0C005B084FEA3202B6EB020E75EB96
S1133F10030E22BFB61A754640EA5C005B084FEAFE
S1133F203202B6EB020E75EB030E22BFB61A7546CB
S1133F3040EA9C005B084FEA3202B6EB020E75EBD6
S1133F40030E22BFB61A754640EADC0055EA060E97
S1133F5018D04FEA051545EA16754FEA06164FEADA
S1133F60C30343EA52734FEAC2025FEA1C1CC0D186
S1133F7011F4801F0BD141EA00014FF000004FF013
S1133F80004CB6E711F4801F04BF01430020B4F1D4
S1133F90FD0C88BFBCF5E06F3FF6AFAEB5EB030C8C
S1133FA004BFB6EB020C5FEA500C50F1000041EB89
S1133FB0045170BD0EF0004E4EEA113114EB5C0456
S1133FC0C2BFD4EB0C0541EA045170BD41F4801129
S1133FD04FF0000E013C90E645EA060E8DE60CEA31
S1133FE0135594EA0C0F08BF95EA0C0F3FF43BAF4E
S1133FF094EA0C0F0AD150EA01347FF434AF95EA05
S11340000C0F7FF425AF104619462CE795EA0C0FE8
S113401006D152EA03353FF4FDAE1046194622E7B5
S113402050EA410618BF52EA43067FF4C5AE50EA8F
S113403041047FF40DAF52EA43057FF4EBAE12E77F
S11340404FF0FF3C06E000BF4FF0010C02E000BF60
S11340504FF0010C4DF804CD4FEA410C7FEA6C5C43
S11340604FEA430C18BF7FEA6C5C1BD001B050EAE6
S1134070410C0CBF52EA430C91EA030F02BF90EAD1
S1134080020F0020704710F1000F91EA030F58BF90
S1134090994208BF90422CBFD8176FEAE37040F0F2
S11340A0010070474FEA410C7FEA6C5C02D150EA90
S11340B0013C07D14FEA430C7FEA6C5CD6D152EA4B
S11340C0033CD3D05DF8040B704700BF8446104610
S11340D062468C461946634600E000BF01B5FFF70F
S11340E0B7FF002848BF10F1000F01BD4DF808EDDF
S11340F0FFF7F4FF0CBF012000205DF808FB00BFB0
S11341004DF808EDFFF7EAFF34BF012000205DF809
S113411008FB00BF4DF808EDFFF7E0FF94BF012056
S113412000205DF808FB00BF4DF808EDFFF7CEFF57
S113413094BF012000205DF808FB00BF4DF808ED96
S1134140FFF7C4FF34BF012000205DF808FB00BF67
S11341504FEA410212F5001215D211D56FF47873AB
S1134160B3EB625212D94FEAC12343F0004343EA4E
S1134170505311F0004F23FA02F018BF4042704729
S11341804FF00000704750EA013005D111F00040B3
S113419008BF6FF0004070474FF00000704700BF49
S11341A04A0011D212F5001211D20DD56FF47873B2
S11341B0B3EB62520ED44FEAC12343F0004343EA07
S11341C0505323FA02F070474FF00000704750EA52
S11341D0013002D14FF0FF3070474FF000007047BC
S11341E053B94AB9002908BF00281CBF4FF0FF315A
S11341F04FF0FF3000F082B9ADF1080C6DE904CE48
S113420000F006F8DDF804E0DDE9022304B07047AD
S11342102DE9F04F099D0C46002B4DD18A420F46E3
S113422084469646B2FA82F360D94BB102FA03FE91
S1134230C3F120029F4000FA03FC20FA02F2174364
S11342404FEA1E461FFA8EF44FEA1C42B7FBF6F102
S113425006FB117701FB04F042EA0742904208D9B9
S11342601EEB020201F1FF3702D2904200F23181CB
S11342703946121A1FFA8CFCB2FBF6F006FB102228
S113428000FB04F44CEA024C644508D91EEB0C0C08
S113429000F1FF3202D2644500F21E81104640EA6A
S11342A00140ACEB040C002125B12CFA03F30022ED
S11342B0C5E90032BDE8F08F8B4205D90DB1C5E9DF
S11342C0000100210846F5E7B3FA83F100294DD136
S11342D0A342C0F0F380904280F0F080064623466B
S11342E00846002DE6D0C5E90063E3E7002B40F063
S11342F0A3808A1A4FEA1E471FFA8EF60121B2FBE9
S1134300F7F407FB14204FEA1C4242EA004206FB82
S113431004F090420FD91EEB020204F1FF382CBFC7
S11343204FF001094FF00009904203D9B9F1000F91
S113433000F0CC804446121A1FFA8CFCB2FBF7F052
S113434007FB102200FB06F64CEA024C664508D92E
S11343501EEB0C0C00F1FF3202D2664500F2B38072
S11343601046ACEB060C40EA04409DE7C1F1200680
S11343708B4004FA01FE22FA06F720FA06FCF44008
S11343808A401F434EEA0C0300FA01FE4FEA174825
S11343904FEA13491FFA87FCB4FBF8F008FB1044FA
S11343A049EA044400FB0CF9A1450ED93C1900F17B
S11343B0FF3A2CBF4FF0010B4FF0000BA14503D97E
S11343C0BBF1000F00F08B805046A4EB09041FFAE8
S11343D083F9B4FBF8F308FB134403FB0CFC49EA30
S11343E00444A44506D93C1903F1FF3801D2A4457D
S11343F07BD8434643EA0040A4EB0C04A0FB02989C
S11344004445CC46434602D306D1CE4504D20138B6
S1134410B9EB020C68EB0703002D6CD0BEEB0C0269
S113442064EB030422FA01F304FA06F6CC400021FB
S11344301E43C5E900643DE702FA03FEC3F120010F
S113444004FA03F200FA03FCCC404FEA1E4720FAB8
S113445001F11FFA8EF6B4FBF7F00A4307FB104490
S1134460110C41EA044100FB06F48C420ED91EEB08
S1134470010100F1FF382CBF4FF001094FF0000992
S11344808C4202D9B9F1000F2CD04046091B92B2DC
S1134490B1FBF7F407FB141142EA014204FB06F1F5
S11344A0914207D91EEB020204F1FF3801D2914276
S11344B01ED84446521A44EA004120E7861A64EBA7
S11344C0030301200DE7F44402384AE7023C724436
S11344D031E702397244CCE6F4440238DFE60238AC
S11344E03C4472E702387144D0E7023B3C4481E724
S11344F0023C7244DEE72946DCE600BF704700BF99
S113450008B5064B044613B10021AFF30080044BF9
S11345101B6803B19847204600F00AFD0000000024
S1134520E4150020002310B50446836081811946F8
S11345304366C28108228361C0E90033C0E90433C1
S11345405C3000F002FF0D4B246263620C4BA362EB
S11345500C4BE3620C4B23630C4B9C4206D003F1DF
S11345606802944202D0D0339C4205D104F1580031
S1134570BDE8104000F0F1BE10BD00BFC552000000
S1134580E75200001F53000043530000AC14002006
S1134590024A0349034800F077BE00BF1C10002004
S11345A0815400002C10002041680C4B994210B536
S11345B0044601D000F064FFA168094B994202D07F
S11345C0204600F05DFFE168064B994204D0204686
S11345D0BDE8104000F054BF10BD00BFAC14002073
S11345E0141500207C15002010B50B4B04210B4C36
S11345F00B4A20461A600022FFF794FF04F168007A
S113460001220921FFF78EFF04F1D00002221221BA
S1134610BDE81040FFF786BFE4150020AC1400206D
S113462091450000014800F099BE00BF1C1600200F
S1134630014800F094BE00BF1C16002010B50446CB
S1134640FFF7F0FF236A1BB1BDE81040FFF7F0BF8E
S1134650044B2362044B1B68002BF5D1FFF7C4FF06
S1134660F2E700BFA9450000E41500202DE9F74357
S11346701D46574B04460E461F68904627B13B6AB9
S113468013B93846FFF7DAFFB8F1020F06D0B8F1D4
S1134690010F00F29980002DC0F29680636ED90755
S11346A005D4A3899A0502D4A06D00F057FE2146D3
S11346B0384600F0E5FE616B41B104F144039942D0
S11346C002D0384600F0F0F8002363630023A361AE
S11346D06360A3891B0603D52169384600F0E4F81A
S11346E0A389B8F1020F23F44A6323F00303A381DF
S11346F060D001AB6A462146384600F0E9FEA38942
S11347001843A0812DBB009D284600F017F90646EA
S1134710002851D1DDF80090A9453FD14FF0FF3575
S1134720B4F90C3043F00202A2810022A26004F129
S113473047022260226101226261626ED60704D4BC
S1134740980502D4A06D00F00AFE284603B0BDE827
S1134750F083002ED8D03B6A13B93846FFF76EFFBA
S1134760B8F1010F266002BFA38943F00103A381BE
S1134770B4F90C3013F00802C4E904651ED0D9075B
S113478045BF00226D42A560A26048BFA561626E6C
S1134790D20701D49B0513D50025D6E7484600F07F
S11347A0CDF806460028B9D0A3894D4643F08003CE
S11347B0A381D0E70025B3E7A946F5E7A260E6E7C1
S11347C0A06D00F0CCFDE7E74FF0FF35BDE700BF7B
S11347D02810002038B50023054D044608462B60F8
S11347E000F0A4FB431C02D12B6803B1236038BD45
S11347F0E815002038B50446064D08461146002247
S11348002A601A4600F09AFB431C02D12B6803B1BC
S1134810236038BDE815002038B50446064D084627
S1134820114600222A601A4600F08AFB431C02D17A
S11348302B6803B1236038BDE815002038B5044661
S1134840064D0846114600222A601A46FEF7F0FA81
S1134850431C02D12B6803B1236038BDE815002046
S113486070B50D4D00260D4C641BA410A64209D151
S11348700B4D00260B4C00F053FE641BA410A64203
S113488005D170BD55F8043B01369847EEE755F85D
S1134890043B01369847F2E784100020841000207E
S11348A0841000208810002038B50546002941D026
S11348B051F8043C0C1F002BB8BFE41800F0E0F8DA
S11348C01D4A136833B9636014602846BDE8384054
S11348D000F0DCB8A34208D9206821188B4201BF3C
S11348E019685B6809182160EDE71A465B680BB12B
S11348F0A342FAD911685018A0420BD12068014490
S1134900501811608342E0D118685B680844536012
S11349101060DAE702D90C232B60D6E7206821184F
S11349208B4202BF19685B680918636008BF216085
S11349305460CAE738BD00BFF0150020024B0146A1
S1134940186800F025B800BF2810002070B50F4E7D
S11349500C460546316811B900F0B0F830602146C4
S1134960284600F0ABF8431C03D14FF0FF34204637
S113497070BDC41C24F00304A042F8D0211A2846B8
S113498000F09CF80130F2D1EFE700BFEC150020F5
S11349902DE9F041CD1C064625F0030508350C2D04
S11349A038BF0C25002D01DBA94204D90C23336048
S11349B00020BDE8F081314F00F062F83B681C46EE
S11349C044BB29463046FFF7C1FF431C044650D17F
S11349D03C682146002941D1002C44D0236830464C
S11349E004EB030800F06AF880453CD121683046A6
S11349F06D1A2946FFF7AAFF013034D023682B44EF
S1134A0023603B68002B36D05A68A24229D1002289
S1134A105A600EE02268521B1DD40B2A16D9611964
S1134A20A342256018BF5960636808BF39606251AA
S1134A304B60304600F02AF804F10B00231D20F0EF
S1134A400700C21AB5D01B1AA350B2E7A34262688A
S1134A50DED13A60EDE723466468B1E70C46496865
S1134A60B8E71346CEE70C233046336000F00EF867
S1134A709EE70560DDE75B60FFDE00BFF015002008
S1134A80014800F06BBC00BF1B160020014800F079
S1134A9066BC00BF1B16002038B50023064D044633
S1134AA0084611462B6000F044FA431C02D12B68DF
S1134AB003B1236038BD00BFE815002038B50023DA
S1134AC0054D044608462B60FCF78EF9431C02D1C1
S1134AD02B6803B1236038BDE815002082B00023A1
S1134AE0019343F2B0635843019B834201D302B064
S1134AF07047019B01330193F6E7704708B500F056
S1134B0033FAFBF799FF00F03CFAFFF7F6FFFAE7F8
S1134B10704708B5FCF778F9FCF762FCBDE808407B
S1134B2000F061B808B500F013F8FEF791F9BDE89C
S1134B30084000F007B87047FCF772B87047704738
S1134B4070477047FCF704B8FCF764B870477047C7
S1134B500F20704708B501213A20FCF753FEBDE849
S1134B600840FFF7D5BF01213A20FCF74BBE70B5D2
S1134B70002506462C46052C20D8DFE804F0030760
S1134B800B0F13175B210820FCF79EF90C2108205A
S1134B90FCF79AF9D1210820FCF796F98021082026
S1134BA0FCF792F900210820FCF78EF96C1C2946C9
S1134BB0E4B208202546FCF787F90624A4F10E0385
S1134BC0012B05D85A210820FCF77EF90134D2E7DD
S1134BD0102C05D1BDE870405D210820FCF774B9A4
S1134BE0B31F195DEFE708B5082000F029F8BDE808
S1134BF00840082000F02FB807B5012320F07F40BB
S1134C0040EA8170019068468DF80030FFF7AFFFED
S1134C1003B05DF804FBFEE710B53AB1002350F889
S1134C20234041F8234001339A42F8D110BD0020BB
S1134C3070474FF4004070474FF47A707047FEE7B6
S1134C404FF060420123D2F8001E83400B43002042
S1134C50C2F8003E70474FF060410122D1F8003E97
S1134C60824023EA02030020C1F8003E704710B5D9
S1134C7088B004460E98009207900D98224606903C
S1134C809DF8300005900B9804909DF8280003903F
S1134C900020CDE901300B460121FCF737F908B0BB
S1134CA010BD08B5FCF77CF8BDE808400021FCF70E
S1134CB083BD0029CCBF01210021FCF77DBD022169
S1134CC04FF42070FDF7C6B810B5FCF757F804464A
S1134CD0FCF7D4FBC0F102012046FFF7EAFF0121F3
S1134CE00020FDF7D3F9FDF747F9BDE81040FCF7C4
S1134CF07FBEEFF3108072B6704700B962B670479A
S1134D00EFF31180302383F31188704780F3118807
S1134D10704770477047C36C0B42FCD1704708B5AD
S1134D2043680246DB0714D50A2350210363FFF7C7
S1134D30F2FF136C9907FCD1936A01211046936228
S1134D40FFF7E9FF136C1B0604D4012302F500529C
S1134D50536008BD536BF5E7036C5B06FCD5C16378
S1134D60704770B5054614460E46FFF7C2FF2B6820
S1134D705C4034405C402C60BDE87040FFF7BDBF30
S1134D80704770B50C46154610B9FDF73FFF38B1B2
S1134D9043682BB12A462146BDE870400068184795
S1134DA0232070BDF7B50D4616461C4648B103B91D
S1134DB001AC87685FB12346324629460068B8478C
S1134DC006E0FDF723FF04B901AC0028F1D123204C
S1134DD003B0F0BD07B501228DF807100DF10701EE
S1134DE0FFF7CFFF03B05DF804FB0B4601461846FE
S1134DF0FFF7F0BF0EB403B503AA52F8041B0192E7
S1134E00FDF710FF02B05DF804EB03B0704710B576
S1134E100446826B136C5906FCD50023616C1A4658
S1134E2094F84000FDF7C2FC0023E16C1A4694F8A4
S1134E304800FDF7BBFC94F86030DA0706D5002380
S1134E40616D1A4694F85000FDF7B0FC94F8603098
S1134E509B0706D50023E16D1A4694F85800FDF728
S1134E60A5FC0422A06B002100F500539A64FDF711
S1134E70D5F9E06B0021FCF7C5FC002010BD10B58E
S1134E800446FFF736FF0421A36BBDE810401A6CFB
S1134E9012F0800F03F5805204BF03F500535964E8
S1134EA04FF0040318BF51649364FFF726BF08B59D
S1134EB0806BFFF751FF002008BD70B50468A06B3C
S1134EC0436C5B0708D5042500F500535D64227E1E
S1134ED01AB99D640123237670BD627E002AFBD03B
S1134EE094F82D2002B30026132184F83560FFF7CF
S1134EF033FFA36B03F5805295645B6BDBB2112B1C
S1134F000DD1012384F834303022237A534303F142
S1134F10A04303F58023DB6E013B2363DCE7132B03
S1134F20DAD184F83460EFE79D64D5E70020704758
S1134F30FEE74FF4005300204B6070470020704799
S1134F4007B5002001AB0190FFF72CFF0198002862
S1134F5008BF4FF0FF3003B05DF804FB80F82C105D
S1134F60704790F82C00704708B5FBF7C5FDFFF7B4
S1134F70D0FDFFF7D7FDFFF7DEFDBDE80840FFF7E2
S1134F80DBBD08B5FFF7DAFDFFF7D9FDFFF7D8FD64
S1134F90BDE80840FFF7D5BD70472DE9F84F9846A6
S1134FA0DDE90B490D9B15469A0706460F4623D0AB
S1134FB02A460A9B03EB040A1444A24220D10D9B07
S1134FC09B0705D5A2EB050AD14505EB0A0420D8B9
S1134FD02046BDE8F88F434639462020B0470AF101
S1134FE0010ACA450AEB0B02F5D3A9EB04024C45AE
S1134FF088BF00222A44DCE7A246A5EB040BF0E7B5
S113500002F1010B434639461AF8010DB0475A46DE
S1135010D3E74346224639462020B0470AF1010A25
S1135020D2E72DE9F0479E46DDE90D3CDDE9087441
S1135030DDE90B651CF0020F9DF828801FD10CF0F0
S113504001094BB1B9F1000F06D0B8F1000F02D13C
S11350501CF00C0F00D0013B4FF0300A02E007F8BF
S113506004A00134A54201D9202CF8D1B9F1000FD4
S113507005D04FF03009A34201D9202C1BD11CF0DC
S1135080100F15D01CF4806F32D1C4B1AC4201D0E2
S11350909C422DD1651E12D0102E3FD11CF0200F42
S11350A0A4F1020456D178263E5530266C1C7E5558
S11350B0202C29D00DE007F804900134DBE7102EF2
S11350C010D11CF0200F2FD178243C7030247C7038
S11350D00224B8F1000F31D02D253D55013414E0E0
S11350E06224F2E7022EFBD030243C700124F0E766
S11350F0102E1BD11CF0200F2AD1202C04D078268E
S1135100651C3E55202DD0D12024CDE90A3CCDE9A3
S113511008747346BDE8F047FFF73FBF022EC4D1C1
S113512062247C550135EDE75824CEE7022E03D1E5
S1135130202CE9D02546F3E72546E3E71CF0040FCD
S113514001D02B25C9E71CF0080FDED02025C4E7C9
S1135150202CD9D05826651CD3E72DE9F04391B013
S1135160189D1A9F1D9E2DB926F0100416F4806F09
S1135170264622D116F0200F14BF4FF0410E4FF0F7
S1135180610EAC4600250DF12008AEF10A0EBCFB01
S1135190F7F907FB19C95FFA89F4B9F1090F94BF4C
S11351A030347444E4B2BC4508F8014B05F1010500
S11351B0BCFBF7F401D3202D10D11C9C069605945A
S11351C01B9CCDE903749DF86440CDE9015408ACFF
S11351D00094FFF726FF11B0BDE8F083A446D6E79C
S11351E02DE9F04F95B0CDE90A23DDE91E76DDE91E
S11351F0229B57EA0603CDE90801269C05D124F039
S1135200100314F4806F1C4637D114F0200F14BF20
S11352104123612300250DF1300AA3F10A08314628
S11352204A465B463846FEF7DBFFD2B2092A94BFF2
S1135230303242444F45D2B276EB0B0605F10105FC
S11352400AF8012B01D3202D14D1259B0694059334
S1135250249BDDE90801CDE903939DF88030CDE975
S113526001530CAB0093DDE90A23FFF7DAFE15B016
S1135270BDE8F08F07460E46D1E70025E5E710B1FB
S1135280D1E90031184770472DE9F84307468846AD
S113529014460026D4E90195B9F1010905D524681D
S11352A0002CF7D13046BDE8F883AB89012B07D930
S11352B0B5F90E30013303D029463846C0470643BA
S11352C06835E9E710B50C46B1F90E10FFF7A4FAFA
S11352D00028ABBF636DA3891B1823F48053ACBFB4
S11352E06365A38110BD2DE9F0411F468B890546F6
S11352F00C46DB05164605D502230022B1F90E1033
S1135300FFF778FAA3893246B4F90E10284623F43D
S11353108053A3813B46BDE8F041FFF78FBA10B537
S11353200C46B1F90E10FFF765FA431CA38915BFAB
S1135330606523F4805343F48053A38118BFA38191
S113534010BDB1F90E10FFF745BA0244034693426B
S113535000D1704703F8011BF9E7704770477047A5
S11353600A44431E914200D1704710B511F8014B15
S1135370914203F8014FF9D110BDB1F90C202DE988
S1135380F041170705460C4656D44B68002B02DC47
S11353900B6C002B3DDDE66A002E3AD0002312F49C
S11353A080522F68216A2B6025D0626DA38958072B
S11353B005D56368D21A636B0BB1236CD21A216AC8
S11353C00023E66A2846B047411C24D000236360CA
S11353D023692360A389DA0400D56065616B2F60BB
S11353E0B9B104F14403994202D02846FFF75CFAAC
S11353F0002363630DE001232846B047461C0246A0
S1135400D4D12B68002BD1D01D2B01D0162B2AD13F
S11354102F6000202EE02A68B4F90C3042B11D2A16
S113542001D0162A21D10023636023692360D5E7C4
S1135430626022692260CEE70F69002FE9D09307EA
S11354400E680F600CBF4B690023A6EB07088B6046
S1135450B8F1000FDDDD43463A46216A2846A66AC4
S1135460B047002808DCB4F90C3043F040034FF097
S1135470FF30A381BDE8F0810744A8EB0008E7E70B
S113548038B50B6905460C4613B90025284638BDC6
S113549018B1036A0BB9FFF7D1F8B4F90C30002B3B
S11354A0F3D0626ED00704D4990502D4A06DFFF73F
S11354B055FF28462146FFF760FF636E0546DA076D
S11354C0E4D4A3899B05E1D4A06DFFF748FFDDE791
S11354D070B50C46B1F90E1096B0154600291E465B
S11354E00CDAA389002113F0800F14BF40234FF47A
S11354F08063002031602B6016B070BD6A46FFF7F0
S1135500CBFA0028EDDB019901F47041A1F50053B9
S1135510594259414FF48063EBE70000000000005A
S1135520F8B500BFF8BC08BC9E467047F8B500BF8C
S1135530F8BC08BC9E467047000000000000000054
S11355400000000000000000000000000000000057
S11355500000000000000000000000000000000047
S1135560633A5C75736572735C6C656E6F766F5CC1
S11355706465736B746F705C6765636B6F2D7364C4
S11355806B5C706C6174666F726D5C656D6C696286
S11355905C696E635C656D5F6770696F2E68004857
S11355A0656C6C6F20576F726C64200A0000FF01F9
S11355B01F00FF000C002E2E2F6175746F67656E3F
S11355C02F736C5F696F73747265616D5F696E6967
S11355D0745F6575736172745F696E7374616E6311
S11355E065732E6300000000050000000000000049
S11355F000C20100000200000010000000000000D2
S113560000000000000000001E000003433A2F5574
S1135610736572732F4C656E6F766F2F4465736B71
S1135620746F702F6765636B6F2D73646B2F706C71
S11356306174666F726D2F656D6C69622F7372632E
S11356402F656D5F636D752E6300433A2F55736547
S113565072732F4C656E6F766F2F4465736B746F26
S1135660702F6765636B6F2D73646B2F706C61743F
S1135670666F726D2F656D6C69622F7372632F652F
S11356806D5F636F72652E6300433A2F55736572C5
S1135690732F4C656E6F766F2F4465736B746F70E8
S11356A02F6765636B6F2D73646B2F706C61746609
S11356B06F726D2F656D6C69622F7372632F656DE8
S11356C05F656D752E6300433A2F55736572732FB2
S11356D04C656E6F766F2F4465736B746F702F67B4
S11356E065636B6F2D73646B2F706C6174666F727E
S11356F06D2F656D6C69622F7372632F656D5F65C5
S113570075736172742E6300633A5C7573657273AA
S11357105C6C656E6F766F5C6465736B746F705CE4
S11357206765636B6F2D73646B5C706C6174666F1B
S1135730726D5C656D6C69625C696E635C656D5FFE
S11357406275732E6800433A2F55736572732F4C3C
S1135750656E6F766F2F4465736B746F702F67651A
S1135760636B6F2D73646B2F706C6174666F726DF5
S11357702F656D6C69622F7372632F656D5F67703F
S1135780696F2E630000FF011F00FF000C00433A05
S11357902F55736572732F4C656E6F766F2F44654A
S11357A0736B746F702F6765636B6F2D73646B2FEE
S11357B0706C6174666F726D2F656D6C69622F73A6
S11357C072632F656D5F6C646D612E630001030469
S11357D001010109030000000B0000000B000000A0
S11357E00200000000002020000000000300000070
S11357F08C8C3C0000000000000000000000000051
S11358000126000004000000000000000001000068
S113581000000000433A2F55736572732F4C656E78
S11358206F766F2F4465736B746F702F6765636B4E
S11358306F2D73646B2F706C6174666F726D2F7350
S11358406572766963652F696F73747265616D2F14
S11358507372632F736C5F696F73747265616D5FCC
S113586072657461726765745F737464696F2E63C3
S113587000433A2F55736572732F4C656E6F766FC4
S11358802F4465736B746F702F6765636B6F2D7333
S1135890646B2F706C6174666F726D2F73657276B2
S11358A06963652F696F73747265616D2F737263B9
S11358B02F736C5F696F73747265616D5F7561726C
S11358C0742E6300666E692B00666E69006E616EED
S11358D000666E692D000000000000000000F03F2B
S11358E000000000000024400000000000005940B7
S11358F00000000000408F40000000000088C3400A
S113590000000000006AF8400000000080842E417E
S113591000000000D01263410000000084D79741CA
S10B59200000000065CDCD413B
S10B59282CAFFF7F0100000019
S10F59303C59000000100020230000007F
S113593C0600000003000000C0EA2101C0EA2101B6
S113594C0080000000F04902201600200000000036
S113595C03000000AC1400202C10002000000000F8
S113596CAC140020141500207C150020000000004D
S113597C0000000000000000000000000000000017
S113598C0000000000000000000000000000000007
S113599C00000000000000000000000000000000F7
S11359AC0000000000000000FFFFFFFF0202011FC7
S10F59BC0401000031080000090800008C
S9030C757B
