S01800007469656E64696E6863756E676E686F6D362E733337F4
S1130000001000205D030000111500001115000010
S11300101115000011150000111500001115000044
S11300201115000011150000111500001115000034
S11300301115000011150000111500001115000024
S11300401115000011150000111500001115000014
S11300501115000011150000111500001115000004
S113006011150000111500001115000011150000F4
S113007011150000111500001115000011150000E4
S113008011150000111500001115000011150000D4
S113009011150000111500001115000011150000C4
S11300A011150000111500001115000011150000B4
S11300B011150000111500001115000011150000A4
S11300C01115000011150000111500001115000094
S11300D01115000011150000111500001115000084
S11300E01115000011150000111500001115000074
S11300F01115000011150000111500001115000064
S11301001115000011150000111500001115000053
S11301101115000011150000111500001115000043
S11301201115000011150000111500001115000033
S11301301115000011150000111500001115000023
S11301400348044B834202D0034B03B11847704762
S11301501C1000201C10002000000000064B074962
S1130160C91A891048BF0131491003D0044B0BB19F
S113017001481847704700BF1C1000201C100020C5
S11301800000000010B5064C237843B9FFF7D8FFF0
S1130190044B13B10448AFF300800123237010BD56
S11301A038100020000000008817000008B5054B37
S11301B01BB105490548AFF30080BDE80840FFF7CF
S11301C0CDBF00BF000000001C10002088170000F5
S11301D0A3F5803A704700BF174B002B08BF134BA1
S11301E09D46FFF7F5FF00218B460F461348144A3E
S11301F0121A01F0FBF90E4B002B00D098470D4B5F
S1130200002B00D098470020002104000D000D4869
S1130210002802D00C48AFF3008001F025F920003B
S1130220290001F050F901F00DF900BF00000800A9
S11302300000000000000000001000201C1000203E
S11302403C100020000000000000000010B5234C0A
S113025000F0BCFC00F0AAFE236F23F0070343F078
S11302600303236701F07DF91D4B00209B6A9B0764
S11302705EBF01221B4B9A62D4F8203123F00303A2
S113028043F00203C4F82031D4F8243123F00703E7
S113029043F00203C4F82431D4F8403123F00303BB
S11302A043F00203C4F84031D4F8603123F003036F
S11302B043F00203C4F86031D4F8403223F003035E
S11302C043F00203C4F84032D4F8003223F00703A9
S11302D043F00203C4F8003210BD00BF0080005098
S11302E000C0005000E0005008B501F015F80128E6
S11302F00ED1104B04205A6E4FF480230E49520342
S113030058BF0E4A4B6601F51041086258BF536648
S113031001F07AF801F0F8F801F006F801F05EF85F
S113032001F024F8FFF792FF01F00EF8BDE8084051
S113033001F0E1B8008000500090005000A000508F
S11303400348044A0449121A921001F0E2B800BFAB
S1130350B8170000B81700003C10002008B500F0E2
S11303602FF8FFF7EDFF124B12498B4212D30020F6
S1130370114B12498B4218D3FFF72EFF186850F81F
S11303802240586840F82240013298688242F5D3EE
S11303900C33EAE70022F8E71C6844F82200013233
S11303A05C68A242F8D30833E4E70022F8E700BF10
S11303B0901700009C1700009C1700009C17000079
S11303C010B54FF400414FF0FF30124B124A9A60BF
S11303D0D3F8882042F47002C3F888200F4A91664B
S11303E001F1884101F5005210664FF6DF70506646
S11303F00220C3F8D000BFF34F8FBFF36F8F0824E0
S11304004FF440330648C0F88041D36004600B6168
S113041010BD00BF00ED00E000000000009000509F
S113042000E100E0014B1868704700BF0410002091
S1130430084B1B6F03F00703022B04D0032B05D0DA
S1130440012B05D0FEE7044B18687047034BFBE70C
S11304500348704700800050041000200C10002056
S1130460002D310108B5FFF7E3FF054B1B6FC3F304
S113047003330133B0FBF3F0024B186008BD00BF37
S113048000800050001000200048704700B4C404ED
S1130490014B1868704700BF0C100020054B186012
S11304A0054B1B6F03F00703032B01D1FFF7DABFE2
S11304B0704700BF0C1000200080005000487047B7
S11304C0002D3101014B1868704700BF081000204F
S11304D0044BD3F88420D206FBD4D3F88400C0F3B1
S11304E0811070470040005038B5104B0546D3F8D2
S11304F020310C4603F00303022B0BD0032B0DD049
S1130500012B0FD1FFF78EFF052305B1286004B13D
S1130510236038BDFFF7BCFF0323F6E7FFF7CEFFE8
S11305200223F2E701230020EFE700BF0080005020
S1130530F7B50027114B0197D3F88041064604F024
S11305400304012C0D4608D0022C12D041F2B13123
S11305500B4800F0F1FF3C4604E0394601A8FFF7E0
S1130560C3FF0F240EB1019B336005B12C6003B0AF
S1130570F0BDFFF7A3FF0190F4E700BF0080005037
S11305804016000038B51A4B0546D3F824010C4632
S113059000F00700062821D8DFE800F0280410182E
S11305A01C0C1400FFF73EFF052305B1286004B1BD
S11305B0236038BDFFF736FF0623F6E7FFF768FF31
S11305C00323F2E7FFF764FF0423EEE7FFF776FF68
S11305D00223EAE700F0A8FF0723E6E7054840F610
S11305E0A87100F0A9FF00231846DEE70123DCE729
S11305F0008000504016000038B5104B0546D3F873
S113060040310C4603F00303022B0BD0032B0DD017
S1130610012B0FD100F08AFF092305B1286004B132
S1130620236038BDFFF74EFF0823F6E700F081FF93
S11306300B23F2E701230020EFE700BF0080005006
S113064038B5164B0546D3F800020C4600F00700F7
S1130650042819D8DFE800F020030B0F130000F082
S113066065FF092305B1286004B1236038BDFFF795
S113067029FF0823F6E700F05CFF0B23F2E7FFF7FE
S1130680F1FE0E23800AEDE7054841F26F4100F0C8
S113069053FF00231846E5E70123E3E700800050F9
S11306A04016000038B5124B0546D3F840320C46CC
S11306B003F00303022B0BD0032B0DD0012B0FD11E
S11306C000F034FF092305B1286004B1236038BD6C
S11306D0FFF7F8FE0823F6E700F02BFF0B23F2E701
S11306E0044841F2FA3100F027FF00231846EAE7F4
S11306F0008000504016000038B5104B0546D3F872
S113070060310C4603F00303022B0BD0032B0DD0F6
S1130710012B0FD100F00AFF092305B1286004B1B1
S1130720236038BDFFF7CEFE0823F6E700F001FF93
S11307300B23F2E701230020EFE700BF0080005005
S113074010B40F4C0B46D4F8204204F00304012CDF
S11307500ED0022C10D008B1002101600BB1002290
S11307601A6040F6D27107485DF8044B00F0E4BE0D
S11307705DF8044BFFF7B8BE5DF8044BFFF73CBFD0
S1130780008000504016000010B5B0F5207F34D032
S113079009D8B0F5007F2AD003D898B1B0F5C07F4E
S11307A010D0002421E0B0F5607FFAD1154BD3F8C6
S11307B08030C3F301149B0617D5032C15D040F2E7
S11307C095210FE00F4B1C6F230B13F00E0FC4F396
S11307D003340AD0072C08D00F2C06D0032C04D0E5
S11307E040F28521084800F0A7FE601C10BD054BAF
S11307F0D3F89040C4F30464F7E7024B1C6FC4F3CE
S11308008024F2E7008000504016000010B54FF439
S113081000320E4B04469A660020FFF7B5FF604392
S113082041F671320A4C0B4BA04294BF00200120C8
S1130830D969DA639A6822F4401242EA00529A6053
S1130840CA0344BF0022DA6310BD00BF0090005009
S1130850005A62020000035070B5460904460D4672
S11308600ED140F22F310D4800F066FE334604F0FD
S11308701F047DB103F580530122A2401A6070BDAC
S1130880012E05D0064B074A022E18BF1346EEE789
S1130890054BECE703F50053EEE700BF40160000FC
S11308A068800050608200506480005030B585B08C
S11308B0002380280446019374D02AD8002877D0D6
S11308C0A0F12004412C32D8412C30D8DFE804F0C8
S11308D070737073888888887373923FA8653F73B8
S11308E073732F2F2F2F2F2F8D57737373B2AD73F5
S11308F02F2F2F2F2F2F2F2F2F2F2F2F2F702F7082
S11309007070882F2F2F2F2F2F2F2F2F2F2F2F2F18
S11309107070B0F5806F63D024D8B0F5007F55D0E7
S11309200BD8B0F5807F6AD0B0F5C07F40D040F2DC
S11309309441434800F000FE37E0B0F5607F45D0B5
S1130940F5D8B0F5207F36D0B0F5407FEFD1FFF772
S113095089FD04464FF42070FFF716FFB4FBF0F452
S1130960640831E0B0F5C06F5AD00DD8B0F5A06F6F
S11309703BD0B0F5B06F3DD0B0F5906FD7D100212A
S113098001A8FFF7FFFD10E0B0F5E06F4DD0B0F522
S1130990F06F4FD0B0F5D06FC9D1002101A8FFF797
S11309A04FFE02E0FFF744FD0190019805B030BD11
S11309B0FFF758FDF8E7FFF755FD04464FF42070A4
S11309C0FFF7E2FEB4FBF0F40194EEE7FFF730FD2D
S11309D005462046FFF7D8FEB5FBF0F50195E4E7A0
S11309E0002101A8FFF780FDDFE7002101A8FFF740
S11309F0A7FEDAE7002101A8FFF79AFDD5E70293E5
S1130A004FF0E0231B695B0705D5FFF72BFD029030
S1130A10029B0193C9E703A902A8FFF7EDFDF7E7DD
S1130A20002101A8FFF7E8FDBFE7002101A8FFF7B7
S1130A3039FEBAE7002101A8FFF75EFEB5E700BF63
S1130A404016000008B58020FFF730FF034B9842A2
S1130A509EBF4FF48032024B1A6708BD005A6202EF
S1130A6000A000501FB50023B0F5807F01937FD014
S1130A7027D8382800F09C800BD82438092810D8AF
S1130A8009280ED8DFE800F06F6F6F6F0D0D670D4A
S1130A903685522867D007D83D283AD03E2800F042
S1130AA08C8040F2795152E08028FAD1454B1B6F7B
S1130AB003F00703013B032B47D8DFE803F044416D
S1130AC03F75B0F5D06F64D019D8B0F5A06F6FD072
S1130AD00AD8B0F5806F46D0B0F5906FE1D1002010
S1130AE001A9FFF74FFD3AE0B0F5B06F33D0B0F590
S1130AF0C06FD6D1002001A9FFF77EFD2FE0B0F52D
S1130B00006FECD00AD8B0F5E06F56D0B0F5F06FB6
S1130B10C7D1002001A9FFF7EFFD20E0B0F5086F71
S1130B20BFD1284BD3F8003103F00303022B35D097
S1130B30032B37D0012B39D1FFF7AAFC032300E0A4
S1130B40052301930BE00223FBE740F2C6411E4854
S1130B5000F0F2FC03E0002001A9FFF7E9FC019892
S1130B6005B05DF804FB002001A9FFF7BDFCF6E722
S1130B7002934FF0E0231B695B0705D5FFF772FC76
S1130B800C230393039BDCE703A902A8FFF734FDBE
S1130B90F8E7002001A9FFF753FDE0E7FFF792FC17
S1130BA00823CEE700F0C0FC0723CAE70123C8E707
S1130BB0002001A9FFF7C4FDD1E7002001A9FFF738
S1130BC071FDCCE700800050401600004FF4002275
S1130BD0034B5A66012203F580439A62704700BFB3
S1130BE000900050F8B5036804460F2B04D940F672
S1130BF06D316C4800F0A0FC63680F2B04D94FF4EE
S1130C003761684800F098FCA3680F2B04D940F6BC
S1130C107331644800F090FC237B0F2B04D940F619
S1130C207631604800F088FC637B0F2B04D940F6D2
S1130C3079315C4800F080FCA37B3F2B04D940F65B
S1130C407C31584800F078FCE37B3F2B04D940F614
S1130C507F31544800F070FC2369032B04D940F61B
S1130C608231504800F068FC6369032B04D940F6D4
S1130C7085314C4800F060FCE369012B04D940F64F
S1130C808831484800F058FC8020FFF7EBFE032829
S1130C9000F087804FF40022434B02215A6645F648
S1130CA00E03424AC2F88030414B9962012103F598
S1130CB080539962936DD903FCD4D4E900131B05C6
S1130CC043EA0163E17B94F820500B43217BE77EE8
S1130CD043EA0143617B6D0143EA0133A17B43EAAB
S1130CE0811313619169D4E904031B0643EA806309
S1130CF001F000410B43A17E94F823000B43217EB5
S1130D0043EA0143617E43EA01239361136AE6697E
S1130D1023F00D0394F8221043EA8703002E2DD10B
S1130D201362966A94F8213045EA031326F03305DA
S1130D302B4343F0010393621E4D1C4B9A6D35EA1D
S1130D400202FBD102221A4DAA621A659A6D520060
S1130D50FCD41A69A56822F4700242EA05521A61A9
S1130D604FF00042124B9A6119B9022203F58053E5
S1130D709A6278B90122104B9A620BE0334343F034
S1130D8008031362936A23F0330303432B4343EAB8
S1130D904103936294F824301BB1044B074AC3F80F
S1130DA08020F8BD401600000090005000C00050A4
S1130DB000D000500300014000E00050F1A7FFFF05
S1130DC0014B93F9000070473910002010B54368B7
S1130DD00446072B04D940F6B3512A4800F0ACFB73
S1130DE0A368032B04D940F6B551264800F0A4FBB0
S1130DF02378032B04D940F6B751224800F09CFB1A
S1130E0094F90130002B04DA40F6B9511D4800F082
S1130E1093FB4FF480011C4A637851664FF4D1511F
S1130E20022002F5B832516218494F2B48604FF046
S1130E30010028BF4F2301F5805148601169C9039F
S1130E40FCD4217843EA01235361D4E901131B0143
S1130E5043EA0123617B0B43217B43EA4103936013
S1130E60E37BA17B1B0143EA4113617C0B43217C9F
S1130E7043EA41035360A37C13B16FF4D15353622B
S1130E8010BD00BF4016000000900050001002503A
S1130E90014B1880704700BF12100020014B1880CE
S1130EA0704700BF1010002010B5B0F5207F65D04A
S1130EB00ED8B0F5007F4FD003D800B3B0F5C07F93
S1130EC01DD040F21231BDE81040344800F034BB6C
S1130ED0B0F5607FF5D14C1E012C06D9042904D04D
S1130EE04FF43D712D4800F027FB2D4AD2F8803095
S1130EF023F0300343EA0413C2F8803010BD4C1EC3
S1130F00012C0AD9102903D8264BCB40DB0704D483
S1130F1040F2C721214800F00FFB00F00FFB00F066
S1130F201BFB4FF48031204B1D4A1967136F23F4C8
S1130F30704343EA04331367FFF794FA0446FFF758
S1130F40C7FAC0F10201204600F000FB00F03EF8B1
S1130F50BDE81040FFF776BD4C1E1F2C04D940F2AB
S1130F6006310E4800F0E8FA0D4AD2F8903023F02A
S1130F70F85343EA0463C2F89030BFE74C1E012CD7
S1130F8004D94FF44371054800F0D6FA044A136FAC
S1130F9023F4806343EA84231367AFE74016000019
S1130FA000800050100101000090005008B501219C
S1130FB0022000F027F800F0C1FA00F0CDFA4FF457
S1130FC08032014B1A6708BD0090005008B54FF4F9
S1130FD0C070FFF76BFCBDE808400449884294BF29
S1130FE0012102214FF42070FFF75EBF80F0FA0266
S1130FF0034A0179D36E23F030030B43D366704761
S113100000400050F8B50446244BD3F88420D006A1
S1131010FBD4D3F88430C3F381139C423CD0FFF754
S113102007FA012C05460BD11D4B984204D940F216
S113103081711C4800F080FA0121284600F086FAEC
S113104000F0A4FA4FF00072174B07465A66204688
S113105000F0A3FA4FF48063104E621E934033678E
S1131060736E9A0103D4D6F884309B060AD53846A9
S113107000F090FA022C0FD12846BDE8F840002178
S113108000F064BAD6F884309906E9D540F28F713D
S1131090044800F051FAE3E7F8BD00BF00400050F7
S11310A0005A62027E1600000060005010B50C4623
S11310B008B9FFF7BDF9074B21461B783BB1064B36
S11310C0984204D80120BDE81040FFF79BBF0220DE
S11310D0F9E700BF3A100020005A620238B54FF019
S11310E00042264B26495A6601224A604AF6CD310F
S11310F003F50B235D6C1964154030BB9968C9076F
S11311000BD4002401221F4B5A6015B11E4B1F4AF9
S11311101A6400F043FA204638BD1A498A601C4A12
S1131120D96ACC0705D4904201D10724EAE70130FB
S1131130F6E79042E5D1F8E70132DC6A14F00804DE
S113114006D08A42F8D10724DFE700221049F4E7E9
S11311508A42F8D020220B4B0B495A620122A3F594
S113116080539A6023460A4A486A800603D493420D
S1131170E9D00133F8E79342C7D1E4E70090005087
S11311800050095000600950004009503254FFFFDC
S113119040420F0038B54FF00042174B174C5A66C7
S11311A0012203F50C235A604AF6CD33656C23649F
S11311B0437893401343124AD363C3788178A26877
S11311C09B0043EA011322F074021343A3600279E3
S11311D0837943EA022323614279C37943EA0223F0
S11311E063610078FFF77AFFEB0744BF054B236484
S11311F000F0D4F9012038BD00900050004009509F
S1131200004000503254FFFF38B5032804460D4611
S113121005D80B4B33F81030CB40DB0704D440F235
S11312202D41084800F088F930220123544341F24B
S1131230100204F1A044AB4004F57034A35038BD4F
S11312403A170000BC16000038B5032804460D46C2
S113125005D80B4B33F81030CB40DB0704D440F2F5
S1131260FE31084800F068F930220123544342F269
S1131270100204F1A044AB4004F57034A35038BD0F
S11312803A170000BC160000F8B5032804460D46C2
S113129016461F4605D81C4B33F81030CB40DB07ED
S11312A004D44FF4B071194800F046F926B1294628
S11312B02046CFB1FFF7A8FF04EB4403072D4FF0FE
S11312C00F014FEA031312D8A80006FA00F2814076
S11312D00F48184400F063F9AEB92946204677B1A7
S11312E0BDE8F840FFF790BFFFF7AEFFE4E7A5F1D4
S11312F00800800006FA00F281400648E9E7BDE8EC
S1131300F840FFF7A1BFF8BD3A170000FB16000034
S113131004C003500CC00350024B1868C0F30740CC
S1131320704700BF0080E00F07B56B46054A1068A0
S1131330516803C36846FFF72DFF002003B05DF832
S113134004FB00BF4217000013B50024064A684698
S1131350536F43F00103536700948DF80440FFF783
S113136047FE204602B010BD0040005030B58BB09F
S11313706C46174D0FCD0FC40FCD0FC495E8030075
S113138084E80300134BD3F84C2112031CD5A3F5B6
S1131390FE431C884FF6FF739C4208BF8C248DF8D3
S11313A01940FFF70DFD204480F308008DF8180064
S11313B00948FFF773F86846FFF714FC3220FFF77B
S11313C06DFD00200BB030BDD3F85041E4B2E6E728
S11313D04C1700000080E00F00F0490230B587B0E0
S11313E0084D01AC0FCD0FC42B6801A8236019234D
S11313F08DF80530FFF7EAFC3220FFF749FD0020A5
S113140007B030BD7417000010B56FF0040350210D
S11314100A480B4C13F0800F03F1010207D1234457
S1131420402A83F800131346F4D1002010BD03F0C2
S11314300F03043B034419761346EBE700ED00E089
S113144000E100E008B5064B044613B10021AFF3F8
S11314500080044B1B6803B19847204600F06DF8E8
S1131460000000003410002070B50D4D00260D4C16
S1131470641BA410A64209D10B4D00260B4C00F0AE
S1131480BFF8641BA410A64205D170BD55F8043BF7
S113149001369847EEE755F8043B01369847F2E7E2
S11314A01410002014100020141000201810002024
S11314B07047704708B50123042218461146FFF708
S11314C0E3FE002008BD08B500F078F8FFF7F0FF50
S11314D0FFF7F0FF00F07FF8FFF7EBFFFAE7704744
S11314E0704700F006B87047704770477047704700
S11314F070470F20704708B501213A20FFF7ACF977
S1131500BDE80840FFF7EBBF01213A20FFF7A4B97B
S1131510FEE710B53AB1002350F8234041F82340C8
S113152001339A42F8D110BD002070474FF40040B7
S113153070474FF47A707047FEE7FEE708B5FEF790
S1131540A3FFBDE808400021FFF760B90029CCBF24
S113155001210021FFF75AB902214FF42070FFF74F
S1131560A3BC10B5FEF77EFF0446FEF7B1FFC0F141
S113157002012046FFF7EAFF01210020FFF796FD54
S1131580FFF724FDBDE81040FFF75CBAEFF31080CD
S113159072B6704700B962B670477047704770B54D
S11315A0054614460E46FFF7F1FF2B685C403440B5
S11315B05C402C60BDE87040FFF7ECBF08B5FEF757
S11315C093FEFFF78DFFFFF78CFFFFF78CFFBDE85D
S11315D00840FFF789BF08B5FFF787FFFFF786FFCD
S11315E0FFF785FFBDE80840FFF782BF02440346CA
S11315F0934200D1704703F8011BF9E70000000093
S1131600F8B500BFF8BC08BC9E467047F8B500BFEB
S1131610F8BC08BC9E4670470000000000000000B3
S113162000000000000000000000000000000000B6
S113163000000000000000000000000000000000A6
S1131640433A2F55736572732F4C656E6F766F2F07
S11316504465736B746F702F6765636B6F2D736470
S11316606B2F706C6174666F726D2F656D6C69623F
S11316702F7372632F656D5F636D752E6300433A3C
S11316802F55736572732F4C656E6F766F2F44659B
S1131690736B746F702F6765636B6F2D73646B2F3F
S11316A0706C6174666F726D2F656D6C69622F73F7
S11316B072632F656D5F656D752E6300633A5C75AB
S11316C0736572735C6C656E6F766F5C6465736B67
S11316D0746F705C6765636B6F2D73646B5C706CA7
S11316E06174666F726D5C656D6C69625C696E6372
S11316F05C656D5F6770696F2E6800433A2F5573A0
S11317006572732F4C656E6F766F2F4465736B74BF
S11317106F702F6765636B6F2D73646B2F706C61D3
S113172074666F726D2F656D6C69622F7372632FAF
S1131730656D5F6770696F2E6300FF011F00FF0016
S11317400C00010304010101090300000B00000067
S11317500B00000002000000000020200000000038
S1131760030000008C8C3C0000000000000000001E
S1131770000000000126000004000000000000003A
S10B178000010000000000005C
S10B178848EAFF7F01000000A4
S10F17909C17000000100020070000005F
S113179CC0EA2101C0EA21010080000000F04902E6
S10F17ACFFFFFFFFAD01000085010000FD
S903035D9C
